:10000000C04C0020893A0100853A0100853A010080
:1000100000000000000000000000000000000000E0
:10002000000000000000000000000000853A010010
:100030000000000000000000853A010011420100AC
:10004000853A0100853A0100853A0100853A0100B0
:10005000F1040100853A0100853A0100853A01006A
:10006000853A010025040100350401004504010022
:10007000550401006504010075040100853A010082
:10008000853A0100853A0100853A0100853A010070
:10009000853A0100853A0100853A0100853A010060
:1000A000853A0100853A0100853A0100853A010050
:1000B00010B5064C2378002B07D1054B002B02D03E
:1000C000044800E000BF0123237010BD000300209E
:1000D00000000000EC20020008B5084B002B03D004
:1000E0000748084900E000BF07480368002B00D11B
:1000F00008BD064B002BFBD09847F9E70000000035
:10010000EC20020004030020EC20020000000000AC
:100110000120704730B58DB0051C00230093081CEA
:10012000111C03AA21330E4CA047031E15D1052034
:10013000291C0C4B984700280DD0042003A9094B1B
:100140009847002807D0084B9847031E05D1074B56
:100150009847052001E0064B98470DB030BDC046DA
:100160006DD80000590F0000E90F0000094400009D
:10017000BD0F000008B50348034B9847034B984751
:100180001E2008BD1C8401005D6F01009D0A000057
:1001900008B50648064B9847064B9847064B9847C4
:1001A000064B9847064B98471E2008BD2484010043
:1001B0005D6F010035140000B90F0000C10F000091
:1001C000B10A000008B50020014B984708BDC046A1
:1001D000390E0000F8B5071C0E1C0420104B984780
:1001E000051E0DD101200F499A220F4B9847031C81
:1001F0000020002B12D00D480D4B984700200DE039
:100200000C4B9847041C281C211C3A1C331C0A4D1B
:10021000A8470B2801D0600800E00020F8BDC046C8
:10022000390E0000348401006D6300006484010015
:100230005D6F01005B710100C1D8000010B5094875
:1002400009490A4A0A4B0B4CA0470B4B19880B4B28
:100250001A680B4B1B680B480B4CA0470B4B98477D
:1002600010BDC0469101000075010000150100009D
:1002700011010000D1D900004485010004000020D4
:10028000080000207C8501009D160000C10F0000C1
:1002900070B582B0051C0C1C03680093081C1E4935
:1002A0001E4A1F4B1F4EB0470B23002830D16B68EE
:1002B0000093201C18491C4A194B1A4EB0470B23B7
:1002C000002825D1AB680093201C1349174A144B12
:1002D000144EB0470B2300281AD1EB680093201C62
:1002E0000D49134A0E4B0F4EB0470B2300280FD178
:1002F0002B7C5A1E93410093201C07490D4A0E4B3C
:10030000084CA0470B23021C501E8241524213404E
:10031000181C02B070BDC04638F901007884010095
:100320002C19020085BC00007C840100D8990100D2
:10033000888401009484010084ED0100F0B54746F3
:1003400080B48CB0061C0C1C081C08A961225A4BF6
:100350009847301C00211822584B9847564F584B4D
:100360009846201C04A97B22B847002800D095E0BD
:10037000201C544901AAC047002806D0524B984778
:10038000011C5248524B98478AE0201C02A9514B4D
:100390009847051E0ED001204F4978224F4B9847B1
:1003A00000287DD0281C484B9847011C4C48484BDE
:1003B000984775E0019D281C4A494B4B98470028F7
:1003C0000DD1201C494903AA3D4B9847039B5A1E57
:1003D00093413374327D01231343337555E0281C58
:1003E0004349414B9847002809D1201C4149321C00
:1003F000334B9847327D02231343337545E0281C65
:100400003D49394B9847002809D1321D201C3949F4
:100410002B4B9847327D04231343337535E0281C5A
:100420003649314B984700280AD1321C0832201C2B
:100430003049234B9847327D08231343337524E01A
:10044000281C2F49284B984700280AD1321C0C320F
:10045000201C28491A4B9847327D102313433375CB
:1004600013E001201C4999221C4B9847002803D017
:1004700024480199164B9847201C234B9847201C71
:1004800004A9224B98470B250CE0201C04A91F4B04
:100490009847002800D164E7002503E0002501E02B
:1004A0000B2004E0201C08A9184B9847281C0CB00E
:1004B00004BC9046F0BDC04651A90000736701001E
:1004C000F5B5000054F00100C56300009C840100F4
:1004D0003D6E010019B30000B48401006D6300009B
:1004E000E0840100948401003771010084ED010073
:1004F000788401002C1902007C840100D899010045
:1005000088840100FC840100E5AA0000D9A900004C
:1005100008B50248024B984708BDC0461C0300209E
:100520008D0A000008B502491422024B984708BD05
:100530001C0300203967010010B5041C0649142271
:10054000064B9847002804D00348211C1422044B72
:100550009847044B984710BD1C0300201B670100FF
:10056000396701008542010030B587B0051C084895
:1005700008492A1C084B984701AC201C074B984798
:100580002574201C064B9847002007B030BDC0469C
:1005900094940100709B01003D6E01002505000050
:1005A0003905000030B589B0041C114B9847114A39
:1005B000114B124DA8470022114B124DA8470022A3
:1005C0000023114DA847114B9847114B98470090B5
:1005D000019110481049221C104B984703A8104B5A
:1005E0009847039403A80F4B9847002009B030BDEB
:1005F000C16301000000E0FFFFFFEF41455801002B
:10060000008076408D5E0100F5510100CD6401004F
:10061000256401009C940100989B01003D6E01003F
:10062000250500003905000030B589B0041C0F4BCA
:1006300098470F4A0F4B104DA847002200230F4D3B
:10064000A8470F4B98470F4B9847009001910E48D1
:100650000E49221C0E4B984703A80E4B9847069450
:1006600003A80D4B9847002009B030BDC1630100BD
:100670000000E0FFFFFFEF4145580100F551010088
:10068000CD640100256401009C940100A89B010039
:100690003D6E0100250500003905000030B589B028
:1006A000041C0F4B98470F4A0F4B104DA8470022D0
:1006B00000230F4DA8470F4B98470F4B98470090CA
:1006C00001910E480E49221C0E4B984703A80E4B71
:1006D0009847049403A80D4B9847002009B030BDFB
:1006E000C16301000000E0FFFFFFEF41455801003A
:1006F000F5510100CD640100256401009C940100C6
:10070000E09B01003D6E0100250500003905000059
:1007100030B589B0041C114B9847114A114B124D4A
:10072000A8470022114B124DA8470022114B124D31
:10073000A847124B9847124B9847009001911148D7
:100740001149221C114B984703A8114B9847059457
:1007500003A8104B9847002009B030BDC1630100C9
:100760000000E0FFFFFFEF4145580100009CB8404A
:100770008D5E01000018A540F5510100CD64010017
:10078000256401009C940100F89B01003D6E01006E
:10079000250500003905000070B58EB0151C1C1C25
:1007A0000268436886680096C6680196007C0290DD
:1007B000086803904868049088680590C8680690A7
:1007C000097C07910895099412990A9114990B9143
:1007D00015990C9103480449044CA04700200EB021
:1007E00070BDC046A89401002C9B01003D6E010025
:1007F000F0B55F464646C0B493B0061C0C1C111CF5
:100800000692181C07931C9B98461D9F327D237DE2
:10081000009101901A9902914146039104973E4834
:100820003E493F4DA8470DA83E4B9B46984708A818
:10083000D847337DDB0706D5327C0DAB1A743A48B6
:100840003649374B9847337D9B0706D533680D9360
:10085000364832491A1C324B9847337D5B0706D520
:1008600073680E9332482D491A1C2D4B9847337DDF
:100870001B0706D5B3680F932E4828491A1C284B2E
:100880009847337DDB0605D5F26810922A48234944
:10089000234B9847237DDB0706D5227C08AB1A74CF
:1008A00026481E491E4B9847237D9B0706D5236883
:1008B0000893234819491A1C194B9847237D5B0755
:1008C00006D5636809931F4814491A1C144B9847AE
:1008D000237D1B0706D5A3680A931B480F491A1CE2
:1008E0000F4B9847237DDB0605D5E2680B9217482E
:1008F0000A490B4B98471A9B009343460293039770
:100900000DA808A9069A079B114CA04713B00CBC70
:1009100090469B46F0BDC04668950100449B01008F
:100920003D6E01002505000000960100289601009B
:100930004C96010078960100A4960100D096010023
:10094000F496010018970100409701006897010094
:100950009907000030B587B0041C81680091C16818
:100960000191017C02910A99039104920593064832
:10097000064922686368064DA847201C054B984726
:10098000002007B030BDC04690970100809B010059
:100990003D6E010039050000F0B5474680B488B0CF
:1009A000041C161C1D1C027D0096019329482A492F
:1009B0000E9B2A4FB84703A8294B9847237DDB0796
:1009C00016D5227C03AF3A7426482349234B984618
:1009D0009847397C2448C0473B7C012B04D18022B6
:1009E000D205224B5A6103E08022D2051F4B9A6147
:1009F000237D9B0706D5236803931D4816491A1CBF
:100A0000164B9847237D5B0706D563680493194806
:100A100011491A1C114B9847237D1B0706D5A36863
:100A2000059315480C491A1C0C4B9847237DDB068F
:100A300005D5E268069211480749084B98470E9B76
:100A4000009303A8321C2B1C0D49884708B004BC36
:100A50009046F0BDF4970100C09B01003D6E01007F
:100A60002505000038980100549801008044004199
:100A70008C980100A4980100C4980100E49801003A
:100A800055090000004870470499010001230374D0
:100A900000238360C36003604360704708B5024869
:100AA000024B984708BDC0460C9C01005D6F0100D9
:100AB00008B50248024B984708BDC046188501009A
:100AC0005D6F01000F20704710B586B001AC201C8F
:100AD000064B9847247B64235C43240A0448054959
:100AE000221C054B9847201C06B010BD25050000B0
:100AF00018990100488501003D6E0100F0B583B0F2
:100B0000051C0A480A4B98470A4B6A4603CB03C2A6
:100B1000094F281C391C009A084EB047019A281C1E
:100B2000391CB047002003B0F0BDC0466485010009
:100B30005D6F0100108501002C19020085BC0000CA
:100B400008B5021C02480349034B9847002008BD22
:100B500038990100308501003D6E0100F0B583B089
:100B6000071C0C480C4B98470C4E0D4D0F2300935F
:100B7000381C311C0B4A2B1C0B4CA0470B4B9847C5
:100B80000090381C311C0A4A2B1CA047002003B0DF
:100B9000F0BDC046749401005D6F010038F901009A
:100BA0002C1902004899010085BC0000C90A000008
:100BB00060990100F0B585B0051C4A4B98474A4C36
:100BC0004A4E0090281C211C494A331C494FB84703
:100BD000022300930395281C211C474A331CB84765
:100BE000012500950398211C444A331CB847009501
:100BF0000398211C424A331CB847472300930398AB
:100C0000211C404A331CB847062300930398211C3B
:100C10003D4A331CB847642300930398211C3B4A88
:100C2000331CB84700950398211C394A394BB84703
:100C300000950398211C384A364BB8470095039815
:100C4000211C364A334BB8470095039D281C211CB4
:100C5000334A304BB847B4230093281C211C314A37
:100C6000331CB84787235B000093281C211C2E4AA5
:100C7000331CB847F0230093281C211C2B4A331C3B
:100C8000B8474B230093281C211C294A331CB84722
:100C9000E1239B000093281C211C264A331CB847E3
:100CA000254B0093281C211C244A331CB847244B95
:100CB0000093281C211C234A331CB84700230093AF
:100CC000281C211C204A331CB84700201F4B984782
:100CD0000090281C211C1E4A1E4BB847002005B05E
:100CE000F0BDC0460D42010038F901002C19020088
:100CF0007499010085BC0000809901008899010069
:100D0000A4990100909901009C990100AC990100FF
:100D1000BC99010084ED0100C8990100D09901003F
:100D2000E4990100F0990100FC990100089A010082
:100D3000109A0100289A01008C0A0000349A0100E0
:100D400088130000449A0100549A0100390E0000F3
:100D5000689A010054F00100032804D0042804D04C
:100D6000022804D105E0072004E0202002E00A2048
:100D700000E0FE207047C046C3B20F2B03D8C0006E
:100D8000024BC05800E002487047C046249E010054
:100D9000749C0100F8B5061C074D0024074F286815
:100DA000311CB847002805D00134E4B20835102CB6
:100DB000F5D1EF3460B2F8BD249E01003771010017
:100DC000C3B20F2B2CD8C300184AD3181B795B076A
:100DD00004D5CAB20023012A25D800E00021052845
:100DE00016DCC300114AD3181B79DB0704D4C300F7
:100DF000D3181B791B070BD5C3000D4A9B58002B3A
:100E000006D08A00D358002B02D01A78002A0AD1C3
:100E10008000084BC358002B04D08900CB5802E057
:100E2000002300E00023181C7047C046249E0100E8
:100E3000280000207C00002008B50021014B9847C5
:100E400008BDC046C10D000038B500280CD003789D
:100E5000002B0DD103200F4B9847041E09D105E04C
:100E6000002015E0012013E0FF2011E0FF200FE03B
:100E7000041C094B1D68201C2968084B9847002852
:100E8000EED06968201C054B98470028EAD0FF2067
:100E900040B238BD390E0000C0000020377101009B
:100EA000F8B5C4B20023052C1CD8C3000E4CE318BF
:100EB0001B795B0704D5CCB20023012C12D800E0CB
:100EC00000218C00094EC700F3191D79013DBB5963
:100ED0001859111C2A1C064B9847BB591B59002254
:100EE0005A550123181CF8BD249E0100280000203B
:100EF0009171010010B5041CC3001048C3181B7980
:100F0000DB0709D5E300C3181B79DB0904D0201CDB
:100F10000B4B9847031C0EE001200A490A4A0B4B71
:100F200098470023002806D0E400044BE158084805
:100F3000084B98470023181C10BDC046249E010092
:100F4000A10E0000789C01006A0200006D630000A1
:100F5000B09C01003D6E010008B50A1C0021014B48
:100F6000984708BDA10E000070B50E4B9B681E6827
:100F700001200D4CA047051C0020A047041C002D9B
:100F800002D02B78002B03D1301C0849084B98471E
:100F9000002C02D02378002B03D10020311C054BFC
:100FA000984770BD28000020390E0000D8000020AE
:100FB0004B710100590F00007047C0460020704778
:100FC00010B5054B9847041C044B98470448054B43
:100FD0009847201C10BDC046BD0F0000690F0000DF
:100FE000651300009116000008B5024B98470020D9
:100FF00008BDC04665190000F0B55F4656464D462F
:101000004446F0B49BB002900E1C6B4619740392D8
:1010100016A96122BF4B9847031E00D09AE1BE4F2C
:1010200001250024F3B29B4601235A4613409A46F9
:10103000D84603E001340135EDB20837E6B2221C90
:10104000E300B549CB181B79DB0900D1E4E0534636
:10105000002B17D1E300CB181B79DB0612D44346D3
:101060009B0704D5E300CB181B79DB070AD4434662
:101070005B0700D4D0E0D200A74B9A1813799B07E6
:1010800000D4C9E070B20399A44B98478146002868
:1010900000D037E173B20D2B00DC37E1BCE0029EDB
:1010A000301C0EA97B229B4B9847002800D0FFE004
:1010B000301C9B493A689B4B9847002800D0F9E0C8
:1010C0000296301C9849994B9847002800D0F3E0CD
:1010D0004846002106AA1023954EB047002800D0AC
:1010E000ECE0102300930AA87921012206AB914E6F
:1010F000B047011C029E301C8F4B9847002800D03F
:10110000DEE0301C0EA98D4B9847002892D0031CBE
:1011100020E10D2E28D1029E301C0EA97B227D4B92
:101120009847002800D0CDE0301C7D493A687D4BBF
:101130009847002800D0C7E0301C81497B4B984776
:10114000002800D0C2E0301C7D49FE22754B984734
:10115000002800D0BCE0301C0EA9784B984700282E
:1011600000D167E7031CF5E00C2E2CD1754B984796
:10117000061E00D1AEE002980EA97B22654B98476F
:10118000002800D0A8E0029865493A68654B984766
:10119000002800D0A2E002986149644B98470028DB
:1011A00000D09DE002985E49321C5E4B98470028B3
:1011B00000D097E002980EA9604B9847002800D114
:1011C00038E7031CC6E04B46002B00D18CE0029EA2
:1011D000301C0EA97B224F4B9847002800D085E099
:1011E000301C4F493A684F4B9847002800D07FE0A9
:1011F000301C4B494D4B9847002800D07AE0301CFA
:1012000047494A46474B9847002875D1301C0EA9DC
:101210004A4B9847002871D16BB20F2B00DC09E7CD
:10122000049BDB073ED502980EA97B22394B9847D9
:10123000031E00D08EE002983949434A394B984743
:10124000031E00D086E002984049384B9847031EA1
:1012500000D07FE0029C201C12A961222D4B9847F0
:10126000031E77D13A4B1B681A68201C2C492D4B62
:101270009847002808D1364B1B685A68201C28491B
:10128000284B9847002801D0031C63E0029812A95C
:101290002A4B9847031E5DD102980EA9274B984709
:1012A000031E57D1029816A9244B9847031C51E0FE
:1012B000031C4FE0031C4DE0031C4BE0031C49E002
:1012C000031C47E0031C45E0031C43E0031C41E012
:1012D000031C3FE001233DE0031C3BE0031C39E01D
:1012E000031C37E0031C35E0012333E0031C31E02D
:1012F000031C2FE0031C2DE0031C2BE0031C29E042
:10130000012327E0012E00D003E7C8E6012E00D01C
:10131000FFE6F5E7A1B80000249E0100C10D000022
:1013200054F0010085BC0000DCEC0100FDB90000B8
:10133000C1D80000B5B6000015B60000D1B8000055
:10134000A8ED010031D80000FC9C0100109D0100B7
:10135000C0000020181C1BB03CBC90469946A24619
:10136000AB46F0BD10B582B0041C002201AB1A7070
:101370000368124A934208D101AA10780423034358
:101380001370081C0E4B98470DE003200D4A934242
:1013900011D101AA1078012303431370081C084BD4
:1013A0009847431C06D001AB197842B2201C064B6B
:1013B000984700E00F2002B010BDC04603010500B1
:1013C000490E000001010580F90F000038B50D1C21
:1013D000141C084B9847C2B20323052A08D8291CBD
:1013E000221C054B98471323424250414042034080
:1013F000181C38BD950D0000F50E000010B50C1C32
:10140000084B9847C2B20323052A09D8211C064A73
:10141000064B98471323002802D0054B984700231A
:10142000181C10BD950D000068D30100F50E0000DA
:10143000690F0000F0B5474680B4144D0026144BE8
:101440009846341C2F1C2B68002B13D018680028DA
:1014500003D02A7900210F4B9847E40044442379B4
:101460005B0707D53B685868002803D03A7900210C
:10147000084B984701360835062EE2D1064B9847AF
:10148000064B984704BC9046F0BDC046280000209B
:10149000249E010073670100690F0000E90F00003E
:1014A00008B50223044A914204D104490122044BA5
:1014B0009847031C181C08BD00010500A8ED010099
:1014C00085BC000008B5114B994205D11049012295
:1014D000104B9847031C16E00F4B994209D10F4B54
:1014E0009A68002A00D10E4A0E490A4B9847031CFD
:1014F00009E002230C4A914205D1084B1A880B4996
:10150000044B9847031C181C08BDC0460001060088
:10151000A8ED010085BC0000010106008C0500203B
:1015200068D3010054F00100020106002C190200EA
:1015300030B595B0041C03A80C4910220C4B9847F9
:101540000123009303A8102107AA2033094DA847BF
:10155000201C10A96122084B9847031E03D1201CB0
:1015600010A9064B984715B030BDC046E09E01005B
:10157000396701006DD80000A1B80000D1B80000A3
:10158000F0B5474680B490B001900CA96122364B6B
:101590009847031E64D10AA828210222334B98479A
:1015A000071E59D0304B9846019C201C02A92822C6
:1015B000C047002854D1201C2D493A682D4B98472C
:1015C00000284DD1201C06A96122274B98470028EE
:1015D00046D13B7A9B0605D47B681B680424002B0C
:1015E0000FD127E0244B1B78233B012B01D8234A42
:1015F00000E0214A019822491E4B98470028EBD071
:101600002EE0204D1B4EAB420FD01A68002A0CD0A2
:101610001378233BDBB20021012098424941521844
:1016200001981749B04700281AD17B681B59043428
:10163000002BE8D1019C201C06A9134B98470028D9
:101640000ED1201C02A9104B9847002808D10AA8E7
:101650000E4B9847071EA7D101980CA90A4B984733
:1016600010B004BC9046F0BDA1B80000198B00007A
:10167000F09E010085BC000090E9010091E90100A5
:1016800054F00100D4E80100D1B80000AD8A000098
:10169000014B18607047C0469C05002010B5054CF2
:1016A0006060002800D10021024801808260C36090
:1016B00010BDC0468C05002008B502490022024B2F
:1016C000984708BDA1140000D130000030B583B0A8
:1016D000041C0D1C0E4901AA0E4B9847002815D179
:1016E000201C291C0C4B98470C4B1B68002B03D06B
:1016F000281C0199984702E0281C094B98470028AC
:1017000004D0201C291C074A074B984703B030BD62
:1017100054F00100F5B5000045BD00009C05002017
:1017200031150000DCEA010055BE000030B595B06F
:10173000424B1A780023002A00D17BE0051C0022CE
:101740003E4B1A700188002904D13D483D4B984713
:1017500000236FE03C483D4B984700230093102244
:1017600001920293281C04A9394A3A4CA047041E4E
:1017700007D0394B9847011C3848344B9847231CF5
:1017800058E004A836490122364B9847041E07D07A
:10179000314B9847011C34482C4B9847231C49E097
:1017A0002A8804A82E492F4B9847041E07D02A4B9D
:1017B0009847011C2D48254B9847231C3AE02C489C
:1017C000204B984704A82B4B9847041E07D0224B68
:1017D0009847011C28481D4B9847231C2AE0274B9B
:1017E0001B68002B0AD004A825499847041C1A4BF3
:1017F0009847011C2348154B984709E004A8224B41
:101800009847041C144B9847011C20480F4B9847DD
:10181000002C08D0201C104B9847011C1C480B4B77
:101820009847231C06E0059B9B68AB6504A8194BF1
:101830009847031C181C15B030BDC046200100207D
:10184000F49E01005D6F01001C9F01003D6E0100D0
:1018500003010500FDBC0000C5630000449F0100BA
:10186000A8ED010085BC00006C9F0100949F010061
:10187000BC9F010081150000D49F01009C05002041
:1018800068D30100FC9F0100311500001CA001007D
:101890003CA0010039A5000008B501800122024BDF
:1018A0001A70024B984708BD200100202D17000038
:1018B00010B50C1C034B9847031E02D1201C024B91
:1018C000984710BD45BD00008115000008B50249CC
:1018D0000022024B984708BDC5140000D13000001B
:1018E00010B50C1C064B9847031E08D1054BDA684F
:1018F000002A00D1044A201C0449054B984710BD1A
:1019000045BD00008C05002068D3010054F00100A3
:1019100085BC000010B582B00C1C0E4B1B880193D7
:101920000D4B9847031E13D1019B191D201C0B4B17
:101930009847031E0CD1201C01A90422084B98478C
:10194000031E05D1034B5968201C019A044B98478C
:1019500002B010BD8C05002045BD000001B700009D
:101960002DB800000122014B1A70704720010020A1
:1019700000280AD00368002B07D00822037A1343FB
:10198000037210300368002BF8D1704770B5A2B015
:10199000041C03681D6D002D43D00379002B02D079
:1019A000012B11D01DE0002302AA13702D48022143
:1019B000A847002815D1049B0193E823019AE2501F
:1019C000059A0433E2500CE0012302AA1370E733B6
:1019D000C3580493EC23C358019305932148022173
:1019E000A847002302AA137023681B6D1D4801211C
:1019F00098470D23002832D1039B019390235B006D
:101A0000019AE250251C1035383BE1580433E25866
:101A1000281C154CA0470499059A281CA0470023B0
:101A20001DE0DA6C0D23002A19D002A8802190470E
:101A3000051C0B23802812D8012252421633FF3393
:101A4000E250261C1036383BE1580433E258301C73
:101A5000054CA047301C02A92A1CA0470023181CD3
:101A600022B070BD0200400039610000F0B591B0B5
:101A7000041C0D1C03921E1C103004AF391C0122E3
:101A80000B4B9847F0340D940CAC302323700E951B
:101A9000281C084B984760700F972023A37000966E
:101AA0000DA8211C0322039B034CA04711B0F0BDDD
:101AB000456100005B7101009962000070B5CAB019
:101AC000051C48AB009347AB0193081C3A493B4ABD
:101AD0002823FF336B443A4CA047002866D12823C3
:101AE000FF336B441B780D24002B62D1479B402BA6
:101AF0005FD134A800214C22324B9847489834A932
:101B00002022314CA047489820303DA92022A047F0
:101B10002E1C1036301C2821FF31694401222B4C29
:101B2000A047301C4899479AA047291CC43134A8C3
:101B300021AA274B9847041E3BD1202347932030EE
:101B4000244B9847011E489032D021A82022224BD6
:101B50009847479B1F2B05D82048FD21204A214B41
:101B6000214CA04706A8214B984706A84899479AB8
:101B7000164B984706A848991D4B98472022479234
:101B8000489B049303AB1A701A4A05920D225A70AF
:101B90002B1CF0332332009204A803A92E3A164CD2
:101BA000A047041C4898154B984702E0041C00E02D
:101BB0000B24201C4AB070BD8CF101009CA00100D8
:101BC000F5B5000073670100E55E000039610000B3
:101BD000A55F0000DDD700009D5E0000A4A001000D
:101BE000B8A40100D8A00100296601002D61000001
:101BF00081610000E4A0010099620000E9D70000C3
:101C0000F0B59BB043890D25402B77D10A1C039179
:101C1000041C3C48211C3C4B98472379002B12D1D3
:101C20003A48211C039A384FB847201C7830211CB1
:101C3000C431374B9847051C364B9847011C364832
:101C4000B847002D5AD1E389022B25D83348344BAD
:101C5000984706AF00233B70201C7830112102AB5F
:101C60009C4661442F4B98474D23009303982E497F
:101C70002E4A3B1C2E4DA847061C051C201C10306C
:101C8000391C4D222B4B9847301C224B9847011C86
:101C900029481D4B984731E02848214B98470F278A
:101CA00002AB9C46674400233B70201C783006AE94
:101CB000311C2022224DA847201C9C300EA9202236
:101CC000A8473B78009640220192039816491D4A86
:101CD000174DA8470390051C1034201C391C012205
:101CE000144FB847201C311C4022B8470398094BB9
:101CF0009847011C1448044B9847FFE7281C1BB069
:101D0000F0BDC046F4A001003D6E010014A1010029
:101D10008D5F0000C563000044A1010074A10100B3
:101D20005D6F0100813100008CF10100DCEC0100ED
:101D300085BC000039610000A0A10100C8A101001C
:101D40009D5E00009CA00100FCA1010070B5AEB03A
:101D500043890D25402B00D07DE00E1C041C3F481C
:101D6000211C321C3E4B98472379012B11D13D4851
:101D70003D4B9847201C7830211CC4313B4B984781
:101D8000051C3B4B9847011C3A48354B9847002DA2
:101D900061D1E389022B4FD83748334B984705ABC5
:101DA0000093301C3549364A04AB364DA847051E12
:101DB0003AD10D35059B4D2B36D104990B78002B6C
:101DC00032D1013108A8304B9847201C10300499BB
:101DD000059A2E4B9847211CC43108A81BAA2C4BEE
:101DE0009847051E20D14C2005902A4B9847011C8E
:101DF00004900B35002817D01BA8274B9847049B4D
:101E0000069303A9059B0B70244B07930D234B707E
:101E1000231CF0333022009206A82E3A204CA04713
:101E2000051C04981F4B9847281C114B9847011C10
:101E30001D480B4B98470EE01C480B4B9847201C45
:101E4000311C1B4B9847051C094B9847011C19482E
:101E5000034B9847FFE7281C2EB070BD24A2010059
:101E60003D6E010044A201005D6F01008D5F000026
:101E7000C563000074A2010090A201008CF1010072
:101E8000DCEC0100F5B50000913100003961000083
:101E9000A55F0000DDD7000081310000E4A0010053
:101EA00099620000E9D70000C0A20100ECA2010085
:101EB000BD1A000004A30100F0B557464E46454642
:101EC000E0B49EB0071C0D1C8368C44A934239D00D
:101ED000C34A934272D0C34A0D24934200D076E1A4
:101EE00003681B6D002B09D0101C002112AA984713
:101EF000002803D190235B00139AFA503B79002B02
:101F000006D1381CB84916AA2033B84CA04705E0C2
:101F1000381CB74916AA2023B44CA0470D2400282A
:101F200000D054E120230093281CB249B24A16ABDA
:101F3000B24CA047041C381C103016A92022B04B0C
:101F4000984744E10379002B02D0012B1AD020E0FE
:101F5000AC4AE823C2500B220433C250AA4B984724
:101F60000D24002800D032E1381C9F4916AA2023F6
:101F70009E4CA047061C381C103016A92022A04BEE
:101F8000984707E09A4916AA2023984CA047061CB8
:101F900000E00D260D24002E00D018E1E823FB58A8
:101FA000EC22BA58009216AA019220220292281C12
:101FB0009049964A914CA047041C08E103681B6DA8
:101FC000002B00D100E10379002B06D1864916AA27
:101FD0002033864CA047041C05E0854916AA20231F
:101FE000824CA047041C002C00D0F0E012AA002371
:101FF00013703B681B6D7A4801219847041E0CD072
:1020000002208349834A844B9847002800D1DEE0B0
:102010008248291C824B9847D9E0AC20814B9847D5
:10202000061E00D1D2E00324159B242B00D0C7E06C
:10203000149B0793191C24227B4B9847139A9023D7
:102040005B00FA50FC3B9C46B444634662460793EF
:1020500016A8311C754B9847041E0DD002206C4900
:10206000942292006C4B9847002800D1A8E0704859
:10207000291C6B4B9847A3E06C239A46B2440798FF
:10208000514620226B4CA0478C239946B144301C0A
:10209000483049462022A04710239C46BC44634652
:1020A0000793604651462022554CA0470798494661
:1020B0002022A047281C6049604B9847041E00D08E
:1020C0007EE0281C0AA928225D4B9847041E77D180
:1020D0004E4B009353460193202302934A460392AA
:1020E0000493281C4349574A0023444CA047041E2C
:1020F00066D1301C544B98471F3402AB9C46644455
:10210000002323700798211C01223D4B9847227819
:10211000281C4E49394B9847041E58D1281C4C495D
:10212000464B9847041E52D1281C0EA96122444BED
:102130009847041E4BD112AA002313703B681B6DF5
:10214000274803219847041E0CD0022030499F22C3
:102150009200314B9847002839D03E48291C304B1B
:10216000984734E0149EE02398461BE0281C3A4927
:1021700072683368214CA047041E0CD00220244909
:10218000A1229200244B9847002820D03348291CD4
:10219000234B98471BE0079871683268184B9847A3
:1021A0004346F658002EE1D1281C0EA92C4B984727
:1021B000041E0CD1281C0AA9294B9847041C06E0D0
:1021C000301C214B984702E0032400E00B24201C24
:1021D0001EB01CBC90469946A246F0BD02004000CD
:1021E000040040000100400030A301006D1A00000F
:1021F00040A301008CF10100DCEC010085BC000073
:102200003961000050A301008D1900005CA301009A
:10221000A4A001003B0200006D63000064A3010064
:102220003D6E0100DDD70000396701001D60000030
:1022300094A301009D5E0000C4A30100FDB900004D
:10224000A1B80000CCA30100E9D70000B0CC010088
:10225000D4A30100DCA3010014A401001CA401000C
:10226000D1B80000F0B557464646C0B4B7B0051C1B
:102270000E1C8368D84A934241D0D84A934200D179
:1022800088E0D74A0D20934200D00DE22B79002B35
:1022900007D1281CD34924AA2033D34CA047031CC0
:1022A00006E0281CD14924AA2023CF4CA047031CB8
:1022B0000D20002B00D0F7E11CAB0093301CCC4963
:1022C000CC4A18ABCC4CA047031C0D20002B00D0EF
:1022D000EAE11C9B202B00D0E6E124A818992022DB
:1022E000C64B9847031C0D20002B00D0DCE1281CB6
:1022F000103024A92022C24B98470020D4E1031CAF
:10230000E833021CEC32009218AA01921CAA029235
:10231000081CB749BB4AB84CA047041C0D20002C30
:1023200000D0C1E11C9B202B00D0BDE12B79002BFC
:1023300002D0012B08D01DE0281CAA4924AA202382
:10234000A94CA047041C15E0281C311CAE4B984733
:10235000031C0D20002B00D0A6E1281CA34924AAB1
:102360002033A14CA047041C281C103024A9202293
:10237000A34B98470D20002C00D095E124A8189974
:1023800020229E4B9847031C0D205A1E93415B420E
:10239000184089E103681B6D002B00D16DE10379C2
:1023A000002B05D18F491CAA20338F4CA04704E095
:1023B0008E491CAA20238C4CA047002800D05EE147
:1023C000301C09A9914B9847002800D057E1099883
:1023D0008F4905228F4B9847002800D04FE1301CD1
:1023E00014A928228C4B9847002800D047E1854B40
:1023F00000930AAB01930CAB02930BAB03930DABB1
:102400000493301C7A49854A1B2302ACA4466344DA
:10241000794CA047002800D031E11B2302AA944642
:1024200063441B78002B00D029E10C9B202B00D0AB
:1024300025E10D9B202B00D021E10A9824A9202220
:10244000774CA0470B982DA92022A04710239C462B
:10245000AC44634667460693181C0A992022684CD0
:10246000A047381C0B992022A047301C6D491B2225
:1024700002AB9C466244604B9847002800D0FEE0C7
:102480001B2302AA944663441B78002B00D0F6E07D
:1024900006981B2161440122594B9847301C09A919
:1024A0005A4B9847002800D0E9E009985E49052278
:1024B000584B9847002800D0E1E0301C18A9612251
:1024C000554B9847002800D0D9E00024574B9A4636
:1024D000E0239846301C51460FAA0EAB464FB84732
:1024E000002840D106980F990E9A454B9847E8204E
:1024F0004F4B9847071E0FD102204E49BD22920034
:102500004D4B9847231C002800D1C3E04B48311C99
:102510004B4B9847231CBDE00E9B03600F9B07931A
:1025200043600EA9474B984700280ED0251C022077
:102530004049BF229200404B9847002800D1A4E0B8
:102540004148311C3E4B98479FE0002C07D13A1C74
:1025500048321CA824A93D4B9847002837D1434650
:10256000FC503C1CB6E70C2823D1301C18A9384B72
:102570009847002820D1301C14A9354B98470028D3
:102580001DD1002C7BD0201C0021324B984700230A
:102590009846984276D110AA0133137094602B6844
:1025A0001B6D0E480321984743424341DBB29846D6
:1025B00068E0271C231C04E0271C231C01E0271CC7
:1025C000231C00229046002B48D1002F60D0381CDD
:1025D000214B98475CE0C0460200400004004000E8
:1025E0000100400040A301006D1A000030A301006B
:1025F0008CF10100DCEC0100F5B500001B67010067
:10260000396100005CA301008D19000019B30000BE
:10261000C4A301006971010051A90000CCA301000D
:10262000E55E0000B0CC0100D4A3010014A40100B9
:10263000DDD70000A4A001006D63000054A40100D8
:102640003D6E0100E933000080A40100B560000088
:10265000D9A90000AD380000E9D70000E026154FE9
:10266000A559002C01D0201CB8472C1EF8D1002001
:102670004346002B18D10D3016E00D2014E0002346
:102680009846F4E7002CE9D1F1E7002D07D19EE749
:102690000D2009E0002BFBD000239846DEE7002345
:1026A00098469C42DAD10D2037B00CBC90469A4631
:1026B000F0BDC046E9D70000114B98420CD0114B39
:1026C000984210D0104B984217D1104B186801381F
:1026D00043425841C0B211E00C4B586801384342A4
:1026E0005841C0B20AE00020022907D9074B986878
:1026F000013843425841C0B200E000207047C04654
:10270000020040000400400001004000A00500203D
:102710000A4B984209D00A4B98420AD0094B98427A
:102720000AD10122084B1A6006E00122064B5A60CA
:1027300002E00122044B9A607047C046020040004C
:102740000400400001004000A005002070B5051CF9
:102750000C1C8168C3685E1A04D043681819321CC7
:10276000044B98476B681A19AA6034191C19EC605D
:1027700070BDC0464B670100F0B589B0051C0C1C4C
:1027800004A96122144B9847144E154F23780093E7
:102790000395281C311C134A3B1C134DA847636842
:1027A00000930398311C114A114BA847637800939A
:1027B0000398311C0F4A3B1CA84763880093039C75
:1027C000201C311C0C4A0D4BA847201C04A90C4BA3
:1027D0009847002009B0F0BDA1B8000038F9010009
:1027E000B0CC0100D4A4010085BC0000DCA4010031
:1027F00084ED0100E4A40100ECA40100A8ED0100B7
:10280000D1B8000070B594B0041C0D1C002A3ED055
:1028100020E02A686B68201C03999847021C03E09B
:102820002448254B98471122002A3ED0201C04A999
:10283000224B984739E0201C04A9214B9847201CC3
:1028400001A9204B9847029801991F4B98470028EF
:10285000DFD0E5E71D48211C2A1C1D4B1D4EB0474B
:10286000201C03A902AA1C4B9847021EDED1E2E7F6
:10287000201C04A9124B984704A80299174B9847AB
:102880006B6804A803992A689847021CCCE70F4894
:10289000211C2A1C124B0F4EB047201C03A902AA70
:1028A0000D4B9847021EC1D1E2E704A80D4B984793
:1028B00014B070BDF4A401005D6F010065BE00009E
:1028C00045BD000019B300003771010014A50100D7
:1028D0003CA501003D6E0100B9920000FDB9000069
:1028E00040A5010039A500008378002B01D00230FB
:1028F00000E000207047C046F0B597B0061C0D1CE4
:102900000591141C1F1C1348311C2A1C231C124D3A
:10291000A847002C00D1114C002300930197104BC5
:102920000293301C06A90F4A0F4B104EB0470028E7
:102930000DD106A80E49059A0E4B984706A8211CF2
:102940000D4B9847002802D106A80C4B984717B0AA
:10295000F0BDC04684A601003D6E0100CCA401007C
:10296000B80B000008000100C0EB0100A5BC00008E
:10297000A8ED010085BC00007927000039A5000002
:1029800030B595B0041C0D1C0D48211C2A1C0D4BA4
:1029900098470023009301930B4B0293201C04A93A
:1029A0000A4A0B4B0B4CA047002807D104A80A4940
:1029B0002A1C0A4B984704A8094B984715B030BD0C
:1029C000BCA601003D6E0100B80B0000090001002B
:1029D000C0EB0100A5BC0000A8ED010085BC000013
:1029E00039A5000030B595B0041C0D1C0D48211C04
:1029F0002A1C0D4B98470023009301930B4B029325
:102A0000201C04A90A4A0B4B0B4CA047002807D1F5
:102A100004A80A492A1C0A4B984704A8094B98475E
:102A200015B030BDE8A601003D6E0100B80B0000F6
:102A30000C000100C0EB0100A5BC00002C19020035
:102A400085BC000039A50000F0B595B0061C0D1C32
:102A5000141C1148311C2A1C231C104FB84700239A
:102A6000009301930E4B0293301C04A90D4A0E4BA8
:102A70000E4EB04700280CD10D4E04A8311C2A1C64
:102A80000C4DA84704A8311C221CA84704A80A4BD7
:102A9000984715B0F0BDC04690A701003D6E0100FB
:102AA000B80B00000F000100C0EB0100A5BC000046
:102AB0002C19020085BC000039A50000F0B599B0C2
:102AC00005900D1C171C1E1C5442544107231C1B4F
:102AD000234805992A1C3B1C224FB847002300932A
:102AE0000196214B0293059808A9221C1F4B204CEC
:102AF000A047041E30D100230793132202A98C465D
:102B0000624413701E9B002B05D0099B9B680593A4
:102B10001E9B059A1A60281C164FB8470790411D46
:102B200008A8154B9847041C08A807A90422134EAF
:102B3000B047281CB847021C08A8291CB04708A8A1
:102B4000132102AB9C4661440122B047002C03D103
:102B500008A80B4B9847041C201C19B0F0BDC046B8
:102B6000D0A701003D6E0100B80B0000B8E70100DE
:102B7000A5BC00005B71010001B700002DB800008A
:102B800039A5000010B582B000240094014CA04784
:102B900002B010BDBD2A000010B50023014CA047B3
:102BA00010BDC046852B000030B591B0051C0C1C33
:102BB0000948291C221C094B9847281C6946084BC8
:102BC000984768460749221C074B98476846074BB9
:102BD000984711B030BDC04688A801003D6E010085
:102BE00045BD000084ED010085BC000039A5000052
:102BF00070B59EB0041C066BB448211CB44B9847BA
:102C00000DA800214022B34B98476368002B00D1E8
:102C100023E22368A022D202934200D124E137D8D4
:102C2000AD4A934200D1D1E018D8AC4A934200D1CA
:102C30000DE106D8022B00D109E1A94A93426CD0DC
:102C4000DEE1A84A934200D1AEE0A74A934200D108
:102C5000B3E0A64A934200D0D2E19CE0A44A93425A
:102C600052D00AD8A34A934200D1C7E000D2B6E0BE
:102C7000C022920293426CD0C2E19F4A934272D02A
:102C80009E4A934278D09E4A934200D0B8E148E0F1
:102C90009C4A93421BD89C4A934200D3DBE0C0225B
:102CA000D202934200D1F8E008D8984A934200D16A
:102CB000E1E0974A934200D1E6E0A1E1954A9342D0
:102CC00000D1F1E0944A934200D1F6E098E1934AB2
:102CD000934200D1B3E00AD8914A934200D196E0E2
:102CE00000D9A8E08F4A934200D1ACE088E18E4A37
:102CF000934200D193E08D4A934200D193E08C4AF5
:102D0000934200D07CE186E08A488B4B9847201C98
:102D10000DA98A4B9847051C82E18948864B984744
:102D20009DE18848844B98478748211C0DAA684B31
:102D30009847201C0DA9814B9847684604A9212279
:102D4000824B98470DA8824904AA824B9847051CDC
:102D500066E18148784B9847201C0DA900227F4BE3
:102D60009847051C5CE17E48734B9847201C0DA9D1
:102D70007C4B9847051C53E17B486F4B9847201CC0
:102D800073491DAA794B9847201C0DA91D9A734BB6
:102D90009847051C44E17648674B9847201C0DA9CD
:102DA000744B9847051C3BE17348634B9847201CC4
:102DB0000DA9724B9847051C32E171485E4B98474C
:102DC000201C0DA96F4B9847051C29E16E485A4BF2
:102DD0009847201C0DA96D4B9847051C20E16C48B5
:102DE000554B9847201C0DA96A4B9847051C6A4B08
:102DF0009847011C6948364B984711E168484E4B8B
:102E00009847201C0DA9674B9847051C08E16648A8
:102E1000494B984723E16548474B98471FE1644871
:102E2000454B98471BE16348434B9847201C624B36
:102E30009847051CF4E061483F4B98470FE1604814
:102E40003D4B98470BE15F483B4B984707E15E4895
:102E5000394B984703E15D48374B984763685B7887
:102E6000032B00D0FBE002E15948334B9847201C6C
:102E7000584B984703E158482F4B9847201C0DA901
:102E8000564B9847051CCBE055482B4B9847201CC8
:102E90000DA9544B9847051CC2E05348264B984750
:102EA000201C524B9847EAE05148234B9847201C7E
:102EB0000DA9504B9847051CB2E04F481E4B984750
:102EC000201C0DA94D4B9847051CA9E024A9010021
:102ED0003D6E010073670100040102000100020061
:102EE0000A000100010102000201020000010200CB
:102EF00000010300060102000002030001020300BA
:102F000001010300050001800400018001010500AA
:102F1000020105000301060004010600020102800F
:102F2000000102800C000180050102800601028080
:102F30000401028048A901005D6F010045BD000049
:102F400074A901008CA90100C0A901007D7A0000CC
:102F500054F0010085BC0000ECA901009597000029
:102F60001CAA01007988000058AA0100F5B50000EC
:102F700094AA010085C60000C8AA0100E9CD00009E
:102F8000FCAA010071CF000034AB010025C900008C
:102F900068AB01007DCA0000C56300009CAB010066
:102FA000C0AB0100EDCB0000F8AB010038AC010074
:102FB0007CAC0100BCAC0100D1CC000000AD010034
:102FC00044AD01008CAD0100D0AD010014AE010094
:102FD00068AE0100B916000080AE0100CD160000F9
:102FE0009CAE0100B1180000C0AE0100CD18000079
:102FF000DCAE0100E1180000F8AE01001519000078
:103000002048214B984763685B78012B27D11F48E4
:103010001D4B9847201C0DA91D4A1E4B9847051CA7
:10302000281C1D4B9847011C1C481D4B9847281E07
:1030300025D163685B78012B07D11A48124B98475A
:103040000DA8194B9847031E19D118480E4B9847E5
:10305000301C174B9847002011E000200FE00020A3
:103060000D4B9847011C0D480D4B9847E1E7132085
:10307000094B9847011C0948094B984713201EB07B
:1030800070BDC04618AF01005D6F010044AF010084
:1030900024E9010055BE0000C563000058AF0100DF
:1030A0003D6E010070AF010039A5000098AF01002E
:1030B0002D17000038B5041C0D1C0348211C2A1CC8
:1030C000024B9847E56438BDACAF01003D6E01008E
:1030D000F0B583B0041C0D1C161C0748211C2A1CCB
:1030E000331C064FB84700960195201C6946002204
:1030F000034B984703B0F0BD78B001003D6E01006E
:1031000005280000F0B583B0041C0D1C161C0748F0
:10311000211C2A1C331C064FB84700960195201C21
:1031200069460122034B984703B0F0BDB0B00100DF
:103130003D6E010005280000F0B54F464646C0B47C
:1031400083B0002913D0171C0D1C061C00240A4B49
:1031500099460A4B9846A3089B009859C847019086
:10316000381901A90422C0470434A542F3D803B09A
:103170000CBC90469946F0BD49D700003967010064
:1031800008B50A1C4C21014B984708BD3931000095
:10319000F0B5474680B482B080460F1C00240A4E2A
:1031A0000A4D391901A80422B0470198A847019097
:1031B000A3089B004246985004344C2CF1D102B035
:1031C00004BC9046F0BDC0463967010049D70000F5
:1031D000F0B5474680B4002851D0002A51D0446849
:1031E000002C50D005680323002D4FD0631C984657
:1031F000436026786B1E9C4603605F23371C9F4309
:10320000A02F01D01F231E4003238E423ED14346F0
:10321000002B3AD06346002B37D0A31C4360637861
:10322000023D0560D90916D07F241C40042C2CD8FF
:10323000002C14D0002D14D0291C00231B0246683A
:10324000771C47603678F318013901606E1AA64280
:1032500001D00029F2D10168994216D302E000237F
:1032600000E0002313604168516041688C4663446C
:10327000436013680268D31A0360002306E0032347
:1032800004E0032302E0032300E00323181C04BC32
:103290009046F0BD0CB4F0B5474680B482B000282B
:1032A0002ED00323002931D009AB0193089B002BBA
:1032B0002AD00368002B25D0051C0C1C089B5E1E21
:1032C0008E1960235B429846144F2178A02906D1BD
:1032D000019B1A1D0192196843461943C9B2019B0B
:1032E0001A1D01921A68281CB847002806D1B4425A
:1032F0000AD001342B68002BE7D103E0031C05E062
:10330000032303E00320F9E70020F7E7181C02B0CD
:1033100004BC9046F0BC08BC02B01847D131000094
:1033200010B504680023944206D14068221C034B68
:10333000984743424341DBB2181C10BD1B67010094
:10334000F0B589B0061C0D1C00211022214B9847B6
:103350001124214F38E0281C211C06AAB847002858
:1033600036D106A8102104AA1B4B984700282FD15C
:1033700004A8062102AA184B9847002828D102A8C1
:1033800016490322164B984700280BD004A80C219D
:103390006A46114B984700281AD1019B7360009B25
:1033A000336011E002A80F4903220D4B9847002813
:1033B0000AD004A80C216A46074B9847002807D179
:1033C000019BF360009BB3602B68002BC3D10020EE
:1033D00009B0F0BD73670100D1310000B4B1010044
:1033E00021330000A8B10100F0B5BDB0051C0E1CD2
:1033F000102231AB1A7030A8AB4904310D3AAB4BF7
:103400009847002D00D11BE20324002E00D129E2B1
:10341000301C31A901223AABA54CA047041E00D0B4
:1034200020E236AB009332AB01933AA830A90322D5
:1034300038AB9F4CA047041E00D013E2399B0B937E
:10344000043BEB60389B0433AB602C1C103420A889
:10345000954908310822954B9847201C0021882265
:10346000944B984710AB0093019412AB029314ABAA
:10347000039316AB049318AB05931AAB069303237F
:1034800007931CAB089338A820A908220023884C76
:10349000A047041E00D0E5E110A802211EAA864B19
:1034A0009847041E00D0DDE103241E9B012B00D0B1
:1034B000D8E11F9B1B78022B00D0D3E112A8062174
:1034C0001EAA7D4B9847041E00D0CBE11EA87B4965
:1034D00008227B4B98470324002800D1C2E1281C16
:1034E000183014A9774B9847041E00D0BAE1281C65
:1034F0002830002110226F4B98470D24169B002B7B
:1035000000D13FE1179B1B78172B02D0182B0FD04F
:1035100046E016A817212EAA674B9847041E00D034
:1035200030E12F986849694B9847A862E9620DE03D
:1035300016A818212EAA604B9847041E00D021E13E
:103540002F986349614B9847A862E9620D24169B46
:10355000002B00D116E1179B1B78172B02D0182BDC
:103560000FD01DE016A817212EAA534B9847041E12
:1035700000D007E12F985449544B9847286369635A
:1035800068E116A818212EAA4B4B9847041E00D0BC
:10359000F8E02F984E494D4B98472863696359E1ED
:1035A00003245FE12E1C48363F4C211C103124A817
:1035B00002223E4FB847211C143126A80222B847E8
:1035C000301C00214C223B4B98472AAB00931AA891
:1035D00024A9022228AB364CA047041E00D0D1E01B
:1035E0002EAB009328A826A902222CAB304CA04772
:1035F000041E00D0C6E02CA836490722304B98475D
:103600000324002800D1BDE02EA8334908222C4B0A
:103610009847002800D1B5E02A9B422B00D0B1E0AA
:103620002B980378002B00D0ACE04378042B00D01B
:10363000A8E002302B903C332A93311C2022274CE7
:10364000A0472B9B0B93181C20302B902A9B203BD0
:103650002A93291C6C312022A047134C211C1831BD
:1036600002260DA8321C114FB847211C1C310FA88F
:103670000322B847211C20310EA8321CB847281C51
:103680009430002104220B4B98471CA8102122AA39
:10369000094B9847041E75D1229B1C93239B1D93B5
:1036A0000E3694276AE0C04678B101003967010000
:1036B0009532000073670100D1310000A0B1010014
:1036C0002133000041330000F8B1010031D7000080
:1036D00008B20100ACB1010054B20100E55E000087
:1036E0001CA8311C24AA614B9847041E4AD1249B74
:1036F0002693259B0B93279328AB00932EAB019326
:1037000024A80FA903222CAB594CA047002809D0AC
:103710002EAB009326A80DA902222CAB544CA04737
:10372000041E2FD12CA853490322534B984700283D
:1037300024D02EA8311C24AA4C4B9847041E21D11A
:10374000249B002B1AD02693259B0B9327932AABFF
:10375000009324A80EA9022222AB454CA0470028C2
:1037600006D026A8012122AA404B9847041E09D161
:10377000229B002B02D0239B1B78EB511C9B002B20
:10378000AED10024002C6DD136A8062134AA374BC7
:103790009847002856D134A838490822364B984714
:1037A000002851D0329B002B50D0339A1178002939
:1037B0004ED101323392013B329328A83049243153
:1037C0000222304B984732A810212AAA274B98474B
:1037D000002831D12EAB00932AA828A902222CABB5
:1037E000234EB047002829D12C9B002B07D02D9ABF
:1037F0001178002903D101322D92013B2C932E9B8D
:10380000002B07D02F9A1178002903D101322F9273
:10381000013B2E932E1C9836301C002148221A4B57
:1038200098472D98311C2C9A184EB047291CBC3152
:103830002F982E9AB04715E0041C13E0041C11E0E9
:1038400003240FE0041C0DE003240BE0032409E033
:10385000032407E0281C383018A90D4B9847041E94
:1038600000D19FE6201C3DB0F0BDC046D131000024
:103870009532000050B2010021330000A0B10100D8
:1038800078B101003967010073670100E55E00004F
:103890004133000010B5021C0B1CC068118998321E
:1038A000014CA04710BDC046E9600000F8B54F4686
:1038B0004646C0B4051E25D0002904D0281C1A4B4A
:1038C000984700282CD1E023EC58002C1CD0AA6B80
:1038D000E86B2E6C6B6C9846E169236A676AB9469F
:1038E000A769BA4212D19E4212D1104B98470028C4
:1038F00010D140464946321C0C4B984700280BD04B
:103900000D200DE000200BE0002009E00D2007E075
:103910000D2005E00D2003E0291C4831251CCBE7D4
:103920000CBC90469946F8BD953800001B67010015
:1039300038B5041C0D1CC068074B9847281C074B62
:103940009847E3689C466044E0600548054B98470B
:103950002369201C984738BD4B7101005B71010041
:1039600070B201005D6F0100F0B5474680B494B0BD
:10397000184B1B7800240A2B27D8019016490022E7
:10398000164B9847041E20D102A8154B9847154E98
:10399000154F164B984612E0019804A9144AB847EF
:1039A000041E0CD10125134B049A9A4203D004A89B
:1039B000114B9847002504A8C047002D05D102A847
:1039C0000121B0470D4B9842E6D9201C14B004BC2D
:1039D0009046F0BDCC06002090B20100992B00006B
:1039E000ADD7000069D70000B5AC00007DA700008E
:1039F000B80B000006000080F12B0000B70B0000A0
:103A0000014B18787047C046210100207047C0461E
:103A1000014B18787047C046CC060020F0B5A9B01D
:103A2000041C5423C35C0020002B00D0CAE0626A4F
:103A30001370636A01336362251C1835281CA36A5E
:103A40009847002800D0BDE0261C3036281C5E496F
:103A50005E4B9847002813D1618E636BE26B9B1A13
:103A6000C918301C5A4A236C9847002808D1A06B0B
:103A700058490222584B98472223002838D179E030
:103A8000002820D1618E636BE26B9B1AC918301C31
:103A90004F4A236C9847002815D1A66B301C4F491C
:103AA00014224D4B98472223002821D1301C153079
:103AB0004B4B9847C0B24B4B18704B4B1A7827238F
:103AC000824215D85BE0002800D07BE00023009301
:103AD00004330193454B0293201C08A90022444B58
:103AE000444DA847031E03D108A8434B9847031C25
:103AF000181E67D1201C18A93C4A404B9847002843
:103B000060D1199B5B78032B0CD101303C493E22DC
:103B1000FF323C4B98470725002822D03A483B4BC0
:103B200098471EE018A808A9394B9847051E18D1D8
:103B300008AB5E88132E0CD901203149A422520013
:103B4000304B98470B3500280BD032482F4B984705
:103B500007E0A01C0999321C2F4B9847A619002397
:103B6000B37018A82D4B9847281E2BD1012254233F
:103B7000E25427E0281C2A49144B984780E704A800
:103B8000284B984708AE284B1A6808929A88B2804A
:103B90009B79B371301C254FB847311804A82122F6
:103BA000234B9847301CB8473018224902221A4B41
:103BB0009847281C311C054B9847E36BA3630022F0
:103BC0001A7080E729B0F0BDDCB201003139000085
:103BD000AC0D0000ECB201001B670100F0B2010067
:103BE00065660100CC06002021010020881300003A
:103BF000B8E70100A5BC000039A50000B5AC000085
:103C000008B301006D63000034B301005D6F010073
:103C100055A8000058B30100396701007DA70000D6
:103C20007CB301003144000098B301005B710100D6
:103C30007D7A0000DC14020010B5041C054B984787
:103C4000201C1830044B9847044B98470022044B23
:103C50001A7010BD958A0000C9C2000049C5000055
:103C6000CC06002070B50F4B1A68002A13D0846868
:103C70000D491D1C3C3504E05A6804330231002A0A
:103C80000BD0A24203D10E888288964207D0AB4265
:103C9000F2D1002004E0002002E0002000E001203A
:103CA00070BDC046AC050020F0050020F0B55F46B1
:103CB00056464D464446F0B46D4B1C78022C00D954
:103CC000ACE0271C01239946ABE05946891A884687
:103CD000191C9D68002D04D19D6A002D00D0BEE006
:103CE00066E08668B54204D19D88AA468588AA45C3
:103CF0000AD08D6A002D39D0866AB54236D18D8CB6
:103D0000AA46858CAA4531D143461B0142469B1ADF
:103D10009B00584AD3181A6903699A420ED2554C2F
:103D2000424612014146511A890061180B6181898E
:103D30004346D21A9200A318998192E09A4200D089
:103D40008FE0828943461B0141465B1A9B0049492B
:103D5000CB189B89934200D183E043461B01414627
:103D60005B1A9B004349CB189A817AE0032C1BD144
:103D70000D69AA463D01ED1BAD003E4EB4466544BB
:103D80002D69AA4510D80CD33D01ED1BAD0065444B
:103D900089898A46A9898A4506D9474601218946E3
:103DA00002E0474601218946013A3C33002A8CD182
:103DB0004B46002B55D0032C12D102693B01DB1B73
:103DC0009B002C49CB181B699A424AD32ED13B0148
:103DD000DB1B9B00CB1882899B899A4226D340E04B
:103DE00024493B01DA1B92008A1885689560858812
:103DF0009580856A9562858C95840678DD1BAD007B
:103E00006E54056915618289DF1BBF00CF19BA8125
:103E1000022C26D80134164B1C7022E00027002308
:103E20009946144B032203218B464EE711493B016F
:103E3000DA1B92008A188468946084889480846A6B
:103E40009462848C94840578DC1BA4006554046916
:103E500014618289DB1B9F00CB199A8101E09D6A66
:103E60004AE73CBC90469946A246AB46F0BDC046E8
:103E7000CD06002018060020014B18787047C04678
:103E8000CD06002008B506480021B422054B98470E
:103E9000054B00221A609A80044B1A7008BDC04678
:103EA000180600207367010010060020CD060020D0
:103EB000F0B55F4656464D464446F0B485B0051C05
:103EC000002303935C4B9B68002B04D15A4A926AEF
:103ED000002A00D19BE0AB60574CA388AB80A36A5B
:103EE000AB62A38CAB8423692B6123782B70A389ED
:103EF000AB810193514B1A7893461F1C3C3400232D
:103F00009A460126A146A368002B03D1A26A002A83
:103F100000D180E07A88002A00D070E05A46002A5A
:103F200017D0AB604B469B88AB804B469B6AAB621D
:103F30004B469B8CAB844B461B692B614B461B78D5
:103F40002B704B469B89AB810193B24600239B4665
:103F500055E04A4611692A69914250D305D81AD1D1
:103F60004A469189AA89914215D2AB604B469B88FB
:103F7000AB804B469B6AAB624B469B8CAB844B46FB
:103F80001B692B614B461B782B704B469B89AB8181
:103F90000193B24633E04B469A89AB899A422ED1BF
:103FA0000023039303A80421254B98474B469B8984
:103FB000019A904698444346591C0398214B9847D0
:103FC0000391019A914218D94B469B68AB604B46CE
:103FD0009B88AB804B469B6AAB624B469B8CAB8409
:103FE0004B461B692B614B461B782B704B469B89BC
:103FF000AB8143460193B24601E04346019301364B
:10400000F6B202373C34032E00D07BE703E00E4BC0
:104010009847072009E00A205B46002B05D153464C
:104020005B000121054A9952002005B03CBC904636
:104030009946A246AB46F0BD1806002010060020A7
:10404000A9D60000A94F0100853E0000F0B54F46FB
:104050004646C0B495B001900C1C161C002160228D
:10406000554B9847554B9847002C00D1544C03A80A
:10407000544B98475448554B9847554B1B68201C48
:1040800005A9321C534CA047041E06D0524B98473A
:10409000011C5248524B98477BE052484B4B984783
:1040A000019805A9504B9847041E06D04A4B9847E3
:1040B000011C4E484A4B98476BE001984C4B98477F
:1040C000041E60D0444B9847011C4A48444B984713
:1040D00049483E4B9847494B9C461B78484D9800B1
:1040E00005AA079F4751474F58009188C153013394
:1040F0000F2189460B4099000F9848515D00928C22
:10410000EA5301334A4613406246137003A8002164
:104110003D4B9847361A002E2DDD3C4F2B4D05A800
:10412000B8470A2826D03A48A847019805A92E4B37
:104130009847041E06D0284B9847011C2B48284B53
:10414000984726E001982A4B9847041E1BD003A8E5
:1041500000212D4B9847361A002EE0DC0BE01E4B59
:104160009847011C2B481E4B984712E02A4DA84740
:10417000A8471AE00724201C174B9847011C1D482C
:10418000174B984705E00198244B9847041EEDD043
:10419000E5E7214B9847201C0F4B9847011C20480E
:1041A0000F4B984701981F4B9847201C15B00CBC2B
:1041B00090469946F0BDC04673670100F57B00004C
:1041C0005CB20100ADD70000A0B301005D6F01003B
:1041D000240100206D710000C5630000D4B301000C
:1041E0003D6E010004B40100C1C100001CB4010017
:1041F0001D3A000050B4010084B40100EC05002019
:10420000AC050020F005002069D70000B13E000099
:10421000B8B40100FCB40100853E0000693900001B
:1042200030B50100393C000008B5094800214022A2
:10423000084B9847084A0023136053609360D3608B
:10424000136153619361D361044A137008BDC04682
:10425000AC05002073670100F0050020EC0500208C
:10426000F8B5071C0E1C151C1C1C0A48391C321CF6
:104270002B1C094DA8471C20084B9847012303809D
:104280000F33837000234360838203732060012017
:10429000F8BDC04654B501003D6E0100DDD70000F9
:1042A000F8B5061C0D1C141C074FB847071C07481F
:1042B000311C2A1C231C064CA047002F01D11320BF
:1042C00000E00020F8BDC0466142000084B5010056
:1042D0003D6E010038B5041C1E48211C1E4B98473A
:1042E0002088A278616800231C4DA847021E21D0B7
:1042F0001B48211C184B9847002C0DD1012019494F
:104300004422FF32184B98471323002820D0174827
:10431000174B984713231BE0012012495422FF3208
:10432000114B98470023002812D01248104B984791
:1043300000230DE001200B498B2292000A4B984785
:104340001323002804D00C48211C034B9847132347
:10435000181C38BDB4B501003D6E0100614200007B
:10436000D4B50100F8B501006D63000020B601006E
:104370005D6F010050B601008CB60100F0B58DB044
:10438000061C0C1C151C1F1C00930C48311C0394AC
:10439000221C2B1C0A4CA04705A8012303800F33C5
:1043A0008370466087600023037303618582039BEB
:1043B0008361044B98470DB0F0BDC046BCB6010008
:1043C0003D6E0100D5420000F8B5061C0D1C141C02
:1043D0000023054FB8470548311C2A1C231C044CF8
:1043E000A0471320F8BDC0466142000008B7010095
:1043F0003D6E010008B5011C01201022014B9847B9
:1044000008BDC046C94300002823013B9BB2002BD6
:10441000FBD100207047C04610B5021C0B1C0120C8
:10442000111C1022014CA04710BDC046A142000043
:10443000BF230370163B4370013383706B3BC37023
:10444000113B0371CE2242718371CF33C3715B3B49
:104450000372873B43729A338372043BC3724E3BB1
:104460000373383B4373243383732833C3730020AF
:104470007047C04610B500282AD0041C8178002956
:1044800009D04068002806D0124B98476068124B4C
:1044900098470023A370217B002909D020690028B8
:1044A00006D00C4B984720690B4B98470023237389
:1044B000A18A002909D0A069002806D0054B984799
:1044C000A069054B98470023A382201C024B984704
:1044D000002010BD1DD70000E9D7000010B582B044
:1044E000041C6846064B9847019B0320002B05D00F
:1044F000A268934201D3203000E0002002B010BD3A
:10450000ADD7000001394118013806E00B780133BE
:10451000DBB20B700139002B01D18142F6D170471B
:10452000F0B557464646C0B483B001900D1C141C2C
:1045300098460AAB1A780F1E0B2F00D20B27231CAC
:10454000591E8B4199010E23DF1BFFB2931EDA0F18
:10455000D3185B10DB003B430B43DBB29A460F2DB5
:1045600005D917489221174A174B184CA0474020ED
:10457000174B9847061E1DD000214022154B984727
:104580002023F754301C213001992A1C124FB847C0
:1045900030235246F254301C313001992A1CB8475E
:1045A00043461B1B06D0321C3F3213701B12013ACC
:1045B000002BFAD1301C03B00CBC90469A46F0BDDB
:1045C000B8B7010094B70100E4B701002966010003
:1045D000DDD700007367010039670100F0B5574669
:1045E0004646C0B485B002908A46904603930F2A8F
:1045F00018D945460C1C1F1C1037194E00970298FD
:10460000211C039A1023B0471034103D0F2DF5D80C
:104610004346103B1B0901331B019A440F234246BA
:104620001A4090464346002B15D0039D2C1C303475
:10463000201C002110220B4B9847201C514642465B
:10464000094B98472B1C103300930298211C2A1CFD
:104650001023034CA04705B00CBC90469A46F0BD11
:1046600099D500007367010039670100F0B557461E
:104670004E464546E0B484B002900C1C03921F1CC9
:104680000E1C30361023994689444B460093311C4A
:10469000221C1023214DA8470C9B002B2FD0301C2F
:1046A000002110221E4B98470C9B1A0A3023E2541B
:1046B00001330C9AE25492460E2A01D90E239A46EF
:1046C000201C3230039D291C5246164B98472B1C48
:1046D00053441D1C0C9B52469B1A98464B46009314
:1046E0000298311C221C10230C4EB0470298291C42
:1046F0004246231C0C4EB0472B1C43440393002F0F
:1047000005D0029803993A1C231C074CA04704B01B
:104710001CBC90469946A246F0BDC04699D5000003
:104720007367010039670100DD450000F0B54746B9
:1047300080B482B001900E1C90461C1C131C1B07F9
:1047400006D015487021FF31144A154B154CA0476F
:10475000201C00211022144B98470198134B9847B6
:10476000371C4346002B10D112E0F95CE25C4A4052
:10477000E2540133102BF8D10198211C221CA847C8
:104780001037BB1B984501D802E0094D0023ECE728
:1047900002B004BC9046F0BDB8B7010018B90100E2
:1047A000F0B7010029660100736701004DD40000D5
:1047B0003DD60000F0B5474680B488B0041C0E1CFE
:1047C000051C1135281C154B98470134201C10215D
:1047D000134B98469847281C211C6A46114FB8472E
:1047E000201C1021C047281C211C04AAB847002304
:1047F000F15C6A469A5C4A4069465A540133202B60
:10480000F6D1281C1022084DA847201C04A910220C
:10481000A84708B004BC9046F0BDC0464DD4000087
:10482000054500003DD6000039670100F0B55F4640
:104830004646C0B487B00390049190461F1C0EAB4F
:104840001B789B4600930F9810993A1C4346214CC5
:10485000A047041E0DD101201F49B8221F4B9847C5
:10486000031C0B20002B2FD01D481E4B98470B20FC
:104870002AE0039D281C1C4B98474346DB1B0097EE
:104880000395281C211C049E321C0593174DA84734
:10489000211C20310D1C0496321C424400910398C7
:1048A000211C5B46124EB047B84507D0049AD21976
:1048B00000950398111C059B0D4DA8470D4B98477B
:1048C000201C0D4B9847002007B00CBC90469B461F
:1048D000F0BDC04621450000B8B701006D6300007F
:1048E00004B801005D6F01004DD400006D4600006A
:1048F000F1D40000D9D40000E9D70000F0B55F463C
:104900004646C0B487B003900491161C1D1C0EAB24
:104910001B78984600930F9810992A1C331C374C2B
:10492000A047041E0DD101203549DE22354B9847A2
:10493000031C0B20002B5CD03348344B98470B20D2
:1049400057E0039F381C324B9847049B9C46B44465
:104950006346059320229346A3445A460092039748
:10496000381C6146624643462A4FB847AE4208D0DB
:10497000049B5A19731B594600910398111C254F2B
:10498000B847731B00950398211C049A224DA84731
:10499000224B9847201C05994246214B98470025F9
:1049A000002822D021786278A378E07800901D4812
:1049B0001D4DA847059B1978049FB8194278837844
:1049C000C07800901948A847321C4244381C002186
:1049D000174B984701200A49F5220A4B98470D25A5
:1049E000002802D01348094B9847201C124B9847C7
:1049F000281C07B00CBC90469B46F0BD214500002A
:104A0000B8B701006D63000028B801005D6F0100B8
:104A10004DD40000F1D400006D460000D9D4000050
:104A20001B6701004CB801003D6E010074B8010025
:104A300073670100A0B80100E9D7000070B582B02B
:104A4000041C0E1C151C111C054B984700230093D9
:104A5000201C291C221C331C024CA04702B070BD34
:104A6000A9D600006DD80000F0B597B0041C0091E5
:104A7000151C0378002B57D0161C1C360F239E43A1
:104A80001036301C304B9847071E48D00021321C8E
:104A90002E4B98472B0E3B742B0C7B742B0ABB744C
:104AA000FD7400233B757B75BB753A1C18322033AF
:104AB000FB750192101C00992A1C254B98478023F6
:104AC000019A5355002302AA9B540133102BFAD1AB
:104AD000101C391C321C06AB1E4DA847381C042183
:104AE0001D4B984702A8391C321C0AABA84706A8E0
:104AF0001A4B984706A80AA90A1C194EB0470EA8D7
:104B00000AA91022124DA84706A80AA90A1CB047F4
:104B100012A80AA91022A847381C124B9847201C3B
:104B20000EA9114B98470BE0202A06D00F48C02150
:104B3000FF310F4A0F4B104CA04700990A4B984782
:104B40000123636217B0F0BDDDD700007367010079
:104B5000396701002D470000054500004DD40000D5
:104B60003DD60000E9D70000B5470000B8B7010006
:104B7000A4B7010008B9010029660100F0B583B0AF
:104B8000041C0F1C01921E1C113000211022074D25
:104B9000A847601C00211022A8472670201C391C41
:104BA000019A034B984703B0F0BDC04673670100FC
:104BB000694A0000F0B55F4656464D46E0B48AB0FB
:104BC000071C0D1C141C0D207B6A002B33D01123F5
:104BD0009C46BC446346019360461A4B9847002CA0
:104BE00018D0194B9B46194B9A46194B99467E1C77
:104BF000301C1021D8470198311C02AAD047261E2C
:104C0000102E00D91026281C02A9321CC847AD1945
:104C1000A41BECD100230293039304930593069302
:104C2000079308930993381C02A90A4B98477B6A9B
:104C300001337B6200200AB01CBC91469A46A34611
:104C4000F0BDC0464DD40000054500003DD6000033
:104C500039670100B547000070B5051C0C1C101C1D
:104C600000211A1C0023084EB047226863681218FE
:104C70004B41994202D804D1904202D929680131AE
:104C800029602260636070BDA151010070B5041CF1
:104C90000D1C101C00211A1C00230D4EB0472A6861
:104CA0006B6812184B41994202D804D1904202D944
:104CB00026680136266012184B41994202D804D169
:104CC000904202D92168013121602A606B6070BD79
:104CD000A1510100F0B5141C1C4345D00C680025FF
:104CE000A41A9D4104602E1CEF174C680025A419DE
:104CF0007D4144602E1CEF178C680025A4197D416E
:104D000084602E1CEF17CC680025A4197D41A418DF
:104D10005D41C4602E1CEF170C690025A4197D416C
:104D200004612E1CEF174C690025A4197D414461D4
:104D30002E1CEF178C690025A4197D41A4185D4134
:104D400084612E1CEF17CC690025A4197D41A41A9B
:104D50009D41C4612E1CEF170C6A002536196F4166
:104D600092197B41026208E0884206D0031C15C9F3
:104D700015C315C915C315C915C3F0BDF0B5574600
:104D80004E46C0B485B082468946101C00210023DF
:104D900000240093019443580293002303934B464D
:104DA0005E580027029A039B92197B41009C019D4B
:104DB00012196B4154466250009300230193043151
:104DC0002429E8D105B00CBC91469A46F0BDC046F6
:104DD00010B5041C054B9847206AC11700234242B6
:104DE0008B41201C211C024CA04710BD7D4D0000B2
:104DF000D54C0000F0B557464E46C0B485B082464B
:104E00008946101C0021012300240093019443587B
:104E1000DB430293002303934B465E580027029A1C
:104E2000039B92197B41009C019D12196B415446D2
:104E3000625000930023019304312429E7D105B087
:104E40000CBC91469A46F0BDF0B55F4656464D46BD
:104E50004446F0B4CBB011908B460B9210930B6A82
:104E6000002B00D0DAE20B1C1C330822561E1968F6
:104E7000002900D0A4E2043B321EF7D1DBE252004D
:104E8000531E002B00DDA8E000239A464FE1089254
:104E900001E009230893089BF3185A1E9246002745
:104EA000002A0BDC00239A4641E1511E18680028B5
:104EB000EDD1043B0A1EF8D10891ECE701239B1BBE
:104EC0000A930B9B994606970A9BDC19E343DB1771
:104ED0001C403B1B98469D002B1C5B440093A60086
:104EE0004E44089B5A1E3B1E934200DD131CE31ADE
:104EF0000833082B4ED89B00E04AD3589F46009BAE
:104F0000203B1A6825A822A9336ADD4DA847009BDB
:104F10001C3B1A6825A822A9F369D94DA847009B14
:104F2000183B1A6825A822A9B369D54DA847009B4C
:104F3000143B1A6825A822A97369D14DA847009B84
:104F4000103B1A6825A822A93369CD4DA847009BBC
:104F50000C3B1A6825A822A9F368C94DA847009BF5
:104F6000083B1A6825A822A9B368C54DA847009D2B
:104F7000043D2A68736825A822A9C14DA847434665
:104F80009B005A469A58A4004B46E35825A822A9EC
:104F9000BB4CA047069BDB0026AA94466344002234
:104FA000229919605A60259B039300230293239B47
:104FB00004930023059302980399049B059CC01851
:104FC00061412290239125920137574500D07AE71D
:104FD0005346102B00DCAAE0FDE126AB9846531E99
:104FE0009A460023994601339B1B04934D46534632
:104FF00002930A960A9B013B2F1E9F4200DD1F1C55
:105000002C1C6B1E5B10B9469F4200DD9946049B29
:105010009C466444E343DB171C402B1B9A469E00CE
:10502000331C5B440093A3005B441F1C4B46E31AF4
:105030000833082B4ED89B00924AD3589F46009BBA
:10504000203B1A6825A822A93B6A8F4EB047009BD7
:105050001C3B1A6825A822A9FB698B4EB047009B10
:10506000183B1A6825A822A9BB69874EB047009B48
:10507000143B1A6825A822A97B69834EB047009B80
:10508000103B1A6825A822A93B697F4EB047009BB8
:105090000C3B1A6825A822A9FB687B4EB047009BF1
:1050A000083B1A6825A822A9BB68774EB047009E26
:1050B000043E32687B6825A822A9734EB047534648
:1050C0009B005A469A58A4005B46E35825A822A99B
:1050D0006D4CA04701232B4209D14F460137BF0039
:1050E0005B46FB5825A822A91A1C654CA047002343
:1050F0004246229911605360259A07920022069237
:10510000239A08920022099206980799089E099FFF
:1051100080197941229023912593013508339C46CB
:10512000E044029B9D4200D064E79A4650E72299F2
:10513000239A5346DB0026A8844663440020544645
:1051400019605860111C021C01340833102CF7DD63
:10515000A246229123903EE140CA00271868596870
:10516000801BB94103C3A342F6D146E10B9B1B6AE6
:10517000002B00DB47E138A958464AAC40C800275D
:105180000A684B68921BBB410CC1A142F6D1002DAD
:1051900000DB38E1002201234898499912184B415D
:1051A000489249932FE1109B002B04D026AC48ADC8
:1051B0000020002128E03EAB38AA2AAE986AD96ABE
:1051C000041C0C431BD0002400259C62DD621C6A79
:1051D0005D6A24184D411C625D629C69DD69241A78
:1051E0008D419C61DD611C685D68241A8D411C60E5
:1051F0005D60146855680019694110605160083B92
:10520000083AB342DAD103E12268636812184B41CD
:10521000181CD9171F1C0026921BBB410CC4AC42A2
:10522000F2D1489B499CC01861414890499148ABD4
:105230009A460923049353460C93129E139F5FE0F2
:10524000049A9046112A47DC0B9B99460F4B9A46CD
:105250000024002500960197C3451BDB069808999A
:1052600053461A685B680A4EB0474B461A685B683B
:10527000121A8B4112196B4111E0C0462CB9010082
:10528000594C000050B901008D4C0000E8B90100F4
:10529000A15101004B461A685B6812196B414146E7
:1052A000102909DC1C1CDD170193002100910098D6
:1052B0000199121A8B4101E00024002549460CC1D6
:1052C000894601239C46E04407339C46E24443461A
:1052D000122BC1D1009E019F0A9A1368069352684F
:1052E0000892134304D0029B013B0293002BA7D1E9
:1052F0000C9B083B0C93049B5A1E049200D287E03F
:10530000049B0822944663449B460C9B0A931A68AC
:10531000111C06921A1C5B68181C08930B1C034393
:1053200003210291403A0B92002B89D1E0E70CCC8B
:1053300012184B4104C5181CD917B442F7D1109B61
:10534000002B0CD1119C236A0093181CD917002341
:1053500042428B41201C211C404CA04777E0119B0E
:105360001E6A002E73D00096002700240025F31734
:1053700002933B4E3B4B984600980299BA59002342
:10538000C0470019694119ABF8500E9000230F93E4
:105390000E9A0F9B801A99410C1CCD170437242FAD
:1053A000EAD11199081C19AA2F4B98474FE00B9B83
:1053B0001A6A0092002A00D06BE51C33083274E5AB
:1053C000161C0020002122902391002325930B9B83
:1053D0009B45ECD153E55346DB0026AA9446634433
:1053E0002299239A19605A605B461D6A002D00DBE2
:1053F000BCE638AB0B9A4AACAEE60B9B1B6A002BA3
:1054000000DBD0E6B7E6109B002B00D1D3E6CDE65B
:1054100026AC119D38AE0020002188E70022002331
:10542000229223930023259309260B9B1232994243
:1054300000D1D2E5BBE70022002322922393002370
:1054400025930B9B9B45B2D100239A466FE64BB048
:105450003CBC90469946A246AB46F0BDD54C0000F8
:10546000C0BA0100A1510100F54D000010B5041CA7
:10547000054B9847206AC117002342428B41201CEC
:10548000211C024CA04710BDF54D0000D54C00007A
:1054900010B5026A0B6A01249A421FDC12DBC26952
:1054A000CB699A4211D812D30023C2189469CA1842
:1054B000926994420ED80FD3043B1A1C1C32F4D1CB
:1054C00000240BE00124644208E0012406E00124EA
:1054D000644203E0012401E001246442201C10BD69
:1054E000F0B50A6A0123134052100262002201271C
:1054F0008C18E46985186608DB073343EB61043ACE
:10550000231C3B40141C2034F2D1F0BD70B5031CA9
:105510000A1C70CA70C370CA70C370CA70C32431C9
:1055200034C934C334C934C334C934C30023C36455
:10553000036543658365C36503664366836601331C
:10554000836470BDF0B55F4656464D464446F0B4A0
:1055500093B080460591364B9946924634E0CA4551
:1055600024D00393002600240025DB170493314B3D
:105570009B46574603980499BA590023D847001907
:10558000694109ABF050009000230193009A019B00
:10559000801A99410C1CCD170436242EEAD1BA4644
:1055A0004046059909AA244B98470BE00693DB1760
:1055B000079306980799002342428B41404605997C
:1055C0001E4CA04743460593059B1B6A002BC6D182
:1055D00056461B4C184D474604E0381C0599321CB2
:1055E000A84705970598311CA0470028F5DA059AC9
:1055F000131C116A009100290ADA124C3D1C111C7F
:10560000281C321CA047291C2B6A002BF8DB08E061
:10561000BA4206D03A1C13CB13C213CB13C213CB1E
:1056200013C213B03CBC90469946A246AB46F0BDAF
:1056300078BA0100A1510100F54D0000D54C0000E1
:10564000915400007D4D0000F0B5474680B4A6B0EF
:1056500001901C1C00931DA8031C61CA61C361CA90
:1056600061C361CA61C314A8031C221C31CA31C3BF
:1056700031CA31C331CA31C30BAA131C15C915C3B2
:1056800015C915C315C915C30023029303930493C9
:10569000059306930793089309930A933D4E3E4B57
:1056A0009846371C3EE01DA8011CB0470B9BDB074A
:1056B00003D50BA8011C009AC0470BA8011CB847D2
:1056C0001D9BDB07EFD5149BDB0712D4314D2C1C3F
:1056D00014A8011CA847029BDB0704D502A8011CE3
:1056E000009A2D4B984702A8011CA047149BDB078A
:1056F000EED51DA814A9294B9847002809DB1DA841
:10570000011C14AA264CA0470BA8011C02AAA04702
:1057100008E014A8011C1DAA214CA04702A8011CE6
:105720000BAAA0471D9A012A17D11E9B002B26D138
:105730001DAB24A99868002821D104338B42F9D1EC
:1057400011E0159B002B1ED114AB1BA998680028F3
:1057500019D104338B42F9D10BE0149B012BF0D00B
:10576000D307A0D5AFE701980BA9009A0D4B984736
:105770000CE0019802A9009A0A4B984706E0149B96
:10578000012BA0D1DDE7D3078DD5B2E726B004BC4D
:105790009046F0BDE15400007D4D000091540000A2
:1057A000F54D0000455500000368002B09D1031D8D
:1057B00024301A68002A06D104338342F9D101202B
:1057C00002E0002000E000207047C046F0B54746E8
:1057D00080B4B8B080460B1C019148330093181C6C
:1057E000464B9847002809D0404600216C22444B84
:1057F000984701234246136053627BE014A8009A45
:10580000111C00233F4EB0470BA8019F391C14AA5E
:105810003D4B984714A8391C021C3C4B98470BA8D9
:10582000011C14AA0023B0470BA914A800260027C6
:105830000C680025221C2B1C12196B4112196B419C
:1058400092197B4104C11E1C00278142F0D1019DA9
:105850002B1C24331A1C26A8191C2C4B98471DA856
:1058600026A9009A0023274CA04726A8011C021C49
:105870000023A04702A826A92A1C0023A04726A887
:10588000011C021C0023A047269BDB070AD526A883
:10589000011C012200231E4CA04726A8011C1D4B01
:1058A000984703E026A8011C1A4B98472FA80BA97C
:1058B0000A1C0023134DA84714A802A90A1C134B65
:1058C000984740462FA914AA0F4CA04714A802A934
:1058D0004246A04714A8011C0BAA0023A847404633
:1058E000243014A926AAA047404648301DA90A4AD8
:1058F0000A4B984738B004BC9046F0BDA957000049
:1059000073670100494E00006D540000D14D000046
:10591000D54C0000E154000078BA01004555000064
:10592000F0B5B1B0041C0D1C171C936C002B06D0F5
:10593000884200D19FE06C22504B98479BE048235F
:105940009C468C446346009360464D4B9847002824
:1059500004D0201C391C4B4B98478CE027A8009B97
:10596000191C1A1C0023484EB0471EA827A9009AEC
:105970000023B04727A8011C3A1C0023B0473A1C5B
:1059800024321EA8011C0023B04727A8011C2A1C92
:105990003E4EB04724239C46AC44634601931EA868
:1059A000011C6246B04727A8011C394A394B984769
:1059B00027A8334B984700281BD01EA8011C344A47
:1059C000344B98471EA82E4B9847002808D0201C1F
:1059D000391C2C4B9847201C211C2F4B98474AE020
:1059E000201C00216C222D4B984701232360636209
:1059F00041E0261C4836301C009927AA0023224F7C
:105A0000B847301C311C224A224B984715A827A9B9
:105A10000A1C0023B8470CA815A927AA0023B847D9
:105A200015A8011C2A1C0023B84727A815A90A1C81
:105A30001B4B984703A81EA90A1C0023B84703A8BC
:105A4000011C27AA114DA847201C03A90CAAA8478E
:105A500015A8011C221CA84715A8011C1EAA00237A
:105A6000B8470CA8011C019A0023B847201C243019
:105A700015A90CAAA84731B0F0BDC046396701008E
:105A8000A95700000D550000494E00006D5400005C
:105A900078BA010045550000CD570000736701003A
:105AA000D14D0000F0B593B0041C0D1C0F1C4837FD
:105AB000381C1B4B9847002807D0201C00214C2283
:105AC000184B98470123A36428E009A816493A1CFB
:105AD000164B174FB847684609A90A1C0023154EF4
