:10000000D04B0020911401008D1401008D140100CB
:1000100000000000000000000000000000000000E0
:100020000000000000000000000000008D1401002E
:1000300000000000000000008D140100E51B01001D
:100040008D1401008D1401008D1401008D14010028
:10005000F9DE00008D1401008D1401008D140100E3
:100060008D1401002DDE00003DDE00004DDE00009D
:100070005DDE00006DDE00007DDE00008D140100FD
:100080008D1401008D1401008D1401008D140100E8
:100090008D1401008D1401008D1401008D140100D8
:1000A0008D1401008D1401008D1401008D140100C8
:1000B00010B5064C2378002B07D1054B002B02D03E
:1000C000044800E000BF0123237010BD000300209E
:1000D00000000000D0E2010008B5084B002B03D05F
:1000E0000748084900E000BF07480368002B00D11B
:1000F00008BD064B002BFBD09847F9E70000000035
:10010000D0E2010004030020D0E201000000000062
:100110000120704730B58DB0051C00230093081CEA
:10012000111C03AA21330D4CA047031E13D1052037
:10013000291C0B4B984700280BD0042003A9084B1F
:100140009847002805D0074B9847031E03D1052088
:1001500001E0054B98470DB030BDC046F5B5000035
:10016000F90E0000890F00005D0F000008B504487B
:100170000449054B9847054B98471E2008BDC046CB
:10018000EC5D0100D45D0100154601007D0A000010
:1001900008B507480749084B9847084B9847084B4C
:1001A0009847084B9847084B98471E2008BDC04603
:1001B000EC5D0100DC5D0100154601001D1400002E
:1001C000590F0000610F0000910A000008B50020DF
:1001D000014B984708BDC0463D0E0000F8B5071C0E
:1001E0000E1C04200A4B9847051E0CD0094B98475B
:1001F000041C281C211C3A1C331C074DA8470B2843
:1002000003D0600802E0002000E00020F8BDC046F6
:100210003D0E00003349010049B6000010B5094801
:1002200009490A4A0A4B0B4CA0470B4B19880B4B48
:100230001A680B4B1B680B480B4CA0470B4B98479D
:1002400010BDC046910100006D01000015010000C5
:1002500011010000F1B60000945E010004000020CE
:1002600008000020E85E010085160000610F000014
:1002700070B582B0051C0C1C03680093081C1E4955
:100280001E4A1F4B1F4EB0470B23002830D16B680E
:100290000093201C18491C4A194B1A4EB0470B23D7
:1002A000002825D1AB680093201C1349174A144B32
:1002B000144EB0470B2300281AD1EB680093201C82
:1002C0000D49134A0E4B0F4EB0470B2300280FD198
:1002D0002B7C5A1E93410093201C07490D4A0E4B5C
:1002E000084CA0470B23021C501E8241524213406F
:1002F000181C02B070BDC04664C00100F45D01006E
:1003000038DB010035A30000F85D0100E073010057
:10031000045E0100105E010044BA0100F0B54746DA
:1003200080B48CB0061C0C1C081C08A961225A4B16
:100330009847301C00211822584B9847564F584B6D
:100340009846201C04A97B22B847002800D095E0DD
:10035000201C544901AAC047002806D0524B984798
:10036000011C5248524B98478AE0201C02A9514B6D
:100370009847051E0ED001204F4978224F4B9847D1
:1003800000287DD0281C484B9847011C4C48484BFE
:10039000984775E0019D281C4A494B4B9847002817
:1003A0000DD1201C494903AA3D4B9847039B5A1E77
:1003B00093413374327D01231343337555E0281C78
:1003C0004349414B9847002809D1201C4149321C20
:1003D000334B9847327D02231343337545E0281C85
:1003E0003D49394B9847002809D1321D201C394915
:1003F0002B4B9847327D04231343337535E0281C7B
:100400003649314B984700280AD1321C0832201C4B
:100410003049234B9847327D08231343337524E03A
:10042000281C2F49284B984700280AD1321C0C322F
:10043000201C28491A4B9847327D102313433375EB
:1004400013E001201C4999221C4B9847002803D037
:1004500024480199164B9847201C234B9847201C91
:1004600004A9224B98470B250CE0201C04A91F4B24
:100470009847002800D164E7002503E0002501E04B
:100480000B2004E0201C08A9184B9847281C0CB02E
:1004900004BC9046F0BDC046A99100004B3F01004E
:1004A000FD9C000014BD010061500000185E0100B9
:1004B000154601001D9A0000305E01000950000041
:1004C0005C5E0100105E01000F49010044BA0100AA
:1004D000F45D010038DB0100F85D0100E07301000C
:1004E000045E0100785E0100B992000009920000EC
:1004F00008B50248024B984708BDC0461C030020BF
:100500006D0A000008B502491422024B984708BD45
:100510001C030020113F010010B5041C06491422E1
:10052000064B9847002804D00348211C1422044B92
:100530009847044B984710BD1C030020F33E010070
:10054000113F0100591C010030B587B0051C084857
:1005500008492A1C084B984701AC201C074B9847B8
:100560002574201C064B9847002007B030BDC046BC
:10057000506E0100985E010015460100050500005F
:100580001905000030B589B0041C114B9847114A79
:10059000114B124DA8470022114B124DA8470022C3
:1005A0000023114DA847114B9847114B98470090D5
:1005B000019110481049221C104B984703A8104B7A
:1005C0009847039403A80F4B9847002009B030BD0B
:1005D000993B01000000E0FFFFFFEF411D300100EB
:1005E0000080764065360100CD290100A53C010060
:1005F000FD3B0100586E0100A85E01001546010098
:10060000050500001905000030B589B0041C0F4B2A
:1006100098470F4A0F4B104DA847002200230F4D5B
:10062000A8470F4B98470F4B9847009001910E48F1
:100630000E49221C0E4B984703A80E4B9847069470
:1006400003A80D4B9847002009B030BD993B01002D
:100650000000E0FFFFFFEF411D300100CD29010048
:10066000A53C0100FD3B0100586E0100B85E010091
:1006700015460100050500001905000030B589B0D8
:10068000041C0F4B98470F4A0F4B104DA8470022F0
:1006900000230F4DA8470F4B98470F4B98470090EA
:1006A00001910E480E49221C0E4B984703A80E4B91
:1006B0009847049403A80D4B9847002009B030BD1B
:1006C000993B01000000E0FFFFFFEF411D300100FA
:1006D000CD290100A53C0100FD3B0100586E010041
:1006E000D05E010015460100050500001905000057
:1006F00030B589B0041C114B9847114A114B124D6B
:10070000A8470022114B124DA8470022114B124D51
:10071000A847124B9847124B9847009001911148F7
:100720001149221C114B984703A8114B9847059477
:1007300003A8104B9847002009B030BD993B010039
:100740000000E0FFFFFFEF411D300100009CB840BA
:10075000653601000018A540CD290100A53C010027
:10076000FD3B0100586E01000475010015460100B3
:10077000050500001905000070B58EB0151C1C1C85
:100780000268436886680096C6680196007C0290FD
:10079000086803904868049088680590C8680690C7
:1007A000097C07910895099412990A9114990B9163
:1007B00015990C9103480449044CA04700200EB041
:1007C00070BDC046646E0100F86D01001546010061
:1007D000F0B55F464646C0B493B0061C0C1C111C15
:1007E0000692181C07931C9B98461D9F327D237D03
:1007F000009101901A9902914146039104973E4855
:100800003E493F4DA8470DA83E4B9B46984708A838
:10081000D847337DDB0706D5327C0DAB1A743A48D6
:100820003649374B9847337D9B0706D533680D9380
:10083000364832491A1C324B9847337D5B0706D540
:1008400073680E9332482D491A1C2D4B9847337DFF
:100850001B0706D5B3680F932E4828491A1C284B4E
:100860009847337DDB0605D5F26810922A48234964
:10087000234B9847237DDB0706D5227C08AB1A74EF
:1008800026481E491E4B9847237D9B0706D52368A3
:100890000893234819491A1C194B9847237D5B0775
:1008A00006D5636809931F4814491A1C144B9847CE
:1008B000237D1B0706D5A3680A931B480F491A1C02
:1008C0000F4B9847237DDB0605D5E2680B9217484E
:1008D0000A490B4B98471A9B009343460293039790
:1008E0000DA808A9069A079B114CA04713B00CBC91
:1008F00090469B46F0BDC046246F0100106E01007B
:100900001546010005050000BC6F0100E46F010001
:100910000870010034700100607001008C700100EB
:10092000B0700100D4700100FC700100247101005E
:100930007907000030B587B0041C81680091C16858
:100940000191017C02910A99039104920593064852
:10095000064922686368064DA847201C054B984746
:10096000002007B030BDC0464C710100386E010058
:100970001546010019050000F0B5474680B488B05F
:10098000041C161C1D1C027D0096019329482A494F
:100990000E9B2A4FB84703A8294B9847237DDB07B6
:1009A00016D5227C03AF3A7426482349234B984638
:1009B0009847397C2448C0473B7C012B04D18022D6
:1009C000D205224B5A6103E08022D2051F4B9A6167
:1009D000237D9B0706D5236803931D4816491A1CDF
:1009E000164B9847237D5B0706D563680493194827
:1009F00011491A1C114B9847237D1B0706D5A36884
:100A0000059315480C491A1C0C4B9847237DDB06AF
:100A100005D5E268069211480749084B98470E9B96
:100A2000009303A8321C2B1C0D49884708B004BC56
:100A30009046F0BDB0710100187501001546010027
:100A400005050000F47101001072010080440041AE
:100A5000487201006072010080720100A072010002
:100A60003509000000487047C0720100012303747B
:100A700000238360C36003604360704708B5024889
:100A8000024B984708BDC046547501003547010028
:100A900008B50248024B984708BDC046987501004A
:100AA0003547010008B5034803490F22034B984717
:100AB0000F2008BDD4720100B07501001546010079
:100AC00008B5034803496422034B9847642008BDD6
:100AD000EC720100E875010015460100F0B583B025
:100AE000051C0A480A490B4B98470B4B6A4603CB37
:100AF00003C20A4F281C391C009A094EB047019ABC
:100B0000281C391CB047002003B0F0BDEC5D01008B
:100B1000D0750100154601008C5E010038DB010034
:100B200035A3000008B5021C02480349034B98474F
:100B3000002008BD08730100E06D010015460100AA
:100B4000F0B585B0071C11481149124CA047124D51
:100B5000A847011C1148A047A847114E00900397D1
:100B6000381C311C0F4A104B104FB847104DA84786
:100B7000011C1048A047A84700900398311C0E4A5A
:100B8000094BB847002005B0F0BDC046EC5D010040
:100B90003875010015460100A50A00001873010010
:100BA00064C001003873010038DB010035A3000088
:100BB000C10A00005073010068730100F0B585B0F0
:100BC000051C494B9847494C494E00900395281CF9
:100BD000211C484A331C484FB8470125009503980B
:100BE000211C464A331CB84700950398211C444AEF
:100BF000331CB84700950398211C424A331CB84760
:100C0000472300930398211C3F4A331CB84706230F
:100C100000930398211C3D4A331CB847642300937A
:100C20000398211C3A4A331CB84700950398211CAD
:100C3000384A394BB84700950398211C374A364B40
:100C4000B84700950398211C354A334BB8470095A7
:100C5000039D281C211C334A2F4BB847B423009313
:100C6000281C211C304A331CB84787235B000093A3
:100C7000281C211C2D4A331CB847F0230093281C44
:100C8000211C2B4A331CB8474B230093281C211CE2
:100C9000284A331CB847E1239B000093281C211CE1
:100CA000254A331CB847254B0093281C211C244A95
:100CB000331CB847234B0093281C211C224A331CA9
:100CC000B84700230093281C211C204A331CB84736
:100CD00000201F4B98470090281C211C1D4A1E4BCA
:100CE000B847002005B0F0BDE11B010064C0010061
:100CF00038DB01007C73010035A30000887301001C
:100D000090730100AC73010098730100A47301009B
:100D1000B4730100C473010044BA0100D073010030
:100D2000D8730100EC730100F87301000474010032
:100D30001074010018740100307401008C0A000066
:100D40003C740100881300004C7401005C740100C5
:100D50003D0E00007074010014BD0100032804D092
:100D6000042804D0022804D105E0072004E0202054
:100D700002E00A2000E0FE207047C046C3B20F2BFD
:100D800003D8C000024BC05800E002487047C0467C
:100D9000887701005C760100F8B5061C074D002439
:100DA000074F2868311CB847002805D00134E4B249
:100DB0000835102CF5D1EF3460B2F8BD887701000A
:100DC0000F490100C3B20F2B2CD8C300184AD31807
:100DD0001B795B0704D5CAB20023012A25D800E09D
:100DE0000021052816DCC300114AD3181B79DB0744
:100DF00004D4C300D3181B791B070BD5C3000D4ABD
:100E00009B58002B06D08A00D358002B02D01A78AA
:100E1000002A0AD18000084BC358002B04D0890057
:100E2000CB5802E0002300E00023181C7047C046A6
:100E300088770100280000207C00002008B50021F0
:100E4000014B984708BDC046C50D000038B50028C5
:100E50000CD00378002B0DD103200F4B9847041EB4
:100E600009D105E0002015E0012013E0FF2011E08A
:100E7000FF200FE0041C094B1D68201C2968084B4B
:100E800098470028EED06968201C054B9847002839
:100E9000EAD0FF2040B238BD3D0E0000C000002067
:100EA0000F490100F8B5C4B20023052C1CD8C300BB
:100EB0000E4CE3181B795B0704D5CCB20023012C40
:100EC00012D800E000218C00094EC700F3191D79EB
:100ED000013DBB591859111C2A1C064B9847BB5998
:100EE0001B5900225A550123181CF8BD88770100B0
:100EF000280000206949010008B50A1C0021014BA7
:100F0000984708BDA50E000070B50E4B9B681E6883
:100F100001200D4CA047051C0020A047041C002DFB
:100F200002D02B78002B03D1301C0849084B98477E
:100F3000002C02D02378002B03D10020311C054B5C
:100F4000984770BD280000203D0E0000D80000200A
:100F500023490100F90E00007047C0460020704789
:100F600010B5054B9847041C044B98470448054BA3
:100F70009847201C10BDC0465D0F0000090F0000FF
:100F8000051300007916000008B5024B98470020B1
:100F900008BDC0464D190000F0B55F4656464D46A7
:100FA0004446F0B49BB002900E1C6B461974039239
:100FB00016A96122BF4B9847031E00D09AE1BE4F8D
:100FC00001250024F3B29B4601235A4613409A465A
:100FD000D84603E001340135EDB20837E6B2221CF1
:100FE000E300B549CB181B79DB0900D1E4E0534697
:100FF000002B17D1E300CB181B79DB0612D4434634
:101000009B0704D5E300CB181B79DB070AD44346C2
:101010005B0700D4D0E0D200A74B9A1813799B0746
:1010200000D4C9E070B20399A44B984781460028C8
:1010300000D037E173B20D2B00DC37E1BCE0029E3B
:10104000301C0EA97B229B4B9847002800D0FFE064
:10105000301C9B493A689B4B9847002800D0F9E028
:101060000296301C9849994B9847002800D0F3E02D
:101070004846002106AA1023954EB047002800D00C
:10108000ECE0102300930AA87921012206AB914ECF
:10109000B047011C029E301C8F4B9847002800D09F
:1010A000DEE0301C0EA98D4B9847002892D0031C1F
:1010B00020E10D2E28D1029E301C0EA97B227D4BF3
:1010C0009847002800D0CDE0301C7D493A687D4B20
:1010D0009847002800D0C7E0301C81497B4B9847D7
:1010E000002800D0C2E0301C7D49FE22754B984795
:1010F000002800D0BCE0301C0EA9784B984700288F
:1011000000D167E7031CF5E00C2E2CD1754B9847F6
:10111000061E00D1AEE002980EA97B22654B9847CF
:10112000002800D0A8E0029865493A68654B9847C6
:10113000002800D0A2E002986149644B984700283B
:1011400000D09DE002985E49321C5E4B9847002813
:1011500000D097E002980EA9604B9847002800D174
:1011600038E7031CC6E04B46002B00D18CE0029E02
:10117000301C0EA97B224F4B9847002800D085E0F9
:10118000301C4F493A684F4B9847002800D07FE009
:10119000301C4B494D4B9847002800D07AE0301C5A
:1011A00047494A46474B9847002875D1301C0EA93D
:1011B0004A4B9847002871D16BB20F2B00DC09E72E
:1011C000049BDB073ED502980EA97B22394B98473A
:1011D000031E00D08EE002983949434A394B9847A4
:1011E000031E00D086E002984049384B9847031E02
:1011F00000D07FE0029C201C12A961222D4B984751
:10120000031E77D13A4B1B681A68201C2C492D4BC2
:101210009847002808D1364B1B685A68201C28497B
:10122000284B9847002801D0031C63E0029812A9BC
:101230002A4B9847031E5DD102980EA9274B984769
:10124000031E57D1029816A9244B9847031C51E05E
:10125000031C4FE0031C4DE0031C4BE0031C49E062
:10126000031C47E0031C45E0031C43E0031C41E072
:10127000031C3FE001233DE0031C3BE0031C39E07D
:10128000031C37E0031C35E0012333E0031C31E08D
:10129000031C2FE0031C2DE0031C2BE0031C29E0A2
:1012A000012327E0012E00D003E7C8E6012E00D07D
:1012B000FFE6F5E7A99F000088770100C50D000053
:1012C00014BD010035A300009CB90100CDA00000B1
:1012D00049B60000BD9D00001D9D0000D99F000083
:1012E00068BA0100B9B500006076010074760100AB
:1012F000C0000020181C1BB03CBC90469946A2467A
:10130000AB46F0BD10B582B0041C002201AB1A70D0
:101310000368124A934208D101AA107804230343B8
:101320001370081C0E4B98470DE003200D4A9342A2
:1013300011D101AA1078012303431370081C084B34
:101340009847431C06D001AB197842B2201C064BCB
:10135000984700E00F2002B010BDC0460301050011
:101360004D0E000001010580990F000038B50D1CDD
:10137000141C104B9847C2B20323052A17D8C30088
:101380000D4AD3181A791323D20710D5C3000A4A7D
:10139000D3181A79D2091323002A08D0291C221C39
:1013A000064B984713234242504140420340181CC9
:1013B00038BDC046990D000088770100A50E0000D9
:1013C00010B50C1C104B9847C2B20323052A19D83C
:1013D000C3000E4AD3181A791323D20712D5C300BB
:1013E0000A4AD3181A79D2091323002A0AD0211CD9
:1013F000074A084B9847002803D0074B984700231B
:1014000000E01323181C10BD990D0000887701001F
:1014100094A50100A50E0000090F0000F0B5474695
:1014200080B4144D0026144B9846341C2F1C2B6896
:10143000002B13D01868002803D02A7900210F4B05
:101440009847E400444423795B0707D53B68586814
:10145000002803D03A790021084B98470136083517
:10146000062EE2D1064B9847064B984704BC90469F
:10147000F0BDC04628000020887701004B3F0100E6
:10148000090F0000890F000008B50223044A9142A9
:1014900004D104490122044B9847031C181C08BDC1
:1014A0000001050068BA010035A3000008B5114B22
:1014B000994205D110490122104B9847031C16E0B0
:1014C0000F4B994209D10F4B9A68002A00D10E4A5E
:1014D0000E490A4B9847031C09E002230C4A91422B
:1014E00005D1084B1A880B49044B9847031C181C5C
:1014F00008BDC0460001060068BA010035A300001F
:10150000010106008C05002094A5010014BD010016
:101510000201060038DB010030B595B0041C03A8B9
:101520000C4910220C4B98470123009303A810216B
:1015300007AA2033094DA847201C10A96122084B97
:101540009847031E03D1201C10A9064B984715B0DD
:1015500030BDC04644780100113F0100F5B50000E0
:10156000A99F0000D99F0000F0B5474680B490B015
:1015700001900CA96122364B9847031E64D10AA83A
:1015800028210222334B9847071E59D0304B9846EA
:10159000019C201C02A92822C047002854D1201CED
:1015A0002D493A682D4B984700284DD1201C06A99B
:1015B0006122274B9847002846D13B7A9B0605D4E9
:1015C0007B681B680424002B0FD127E0244B1B7879
:1015D000233B012B01D8234A00E0214A01982249EC
:1015E0001E4B98470028EBD02EE0204D1B4EAB42FF
:1015F0000FD01A68002A0CD01378233BDBB20021ED
:10160000012098424941521801981749B0470028D3
:101610001AD17B681B590434002BE8D1019C201C93
:1016200006A9134B984700280ED1201C02A9104B85
:101630009847002808D10AA80E4B9847071EA7D143
:1016400001980CA90A4B984710B004BC9046F0BD15
:10165000A99F0000917400005478010035A3000098
:1016600050B6010051B6010014BD010094B501004F
:10167000D99F000025740000014B18607047C046D8
:101680009C05002010B5054C6060002800D10021A9
:10169000024801808260C36010BDC0468C050020F6
:1016A00008B502490022024B984708BD8914000082
:1016B0004529000030B583B0041C0D1C0E4901AA59
:1016C0000E4B9847002815D1201C291C0C4B98471D
:1016D0000C4B1B68002B03D0281C0199984702E093
:1016E000281C094B9847002804D0201C291C074AB5
:1016F000074B984703B030BD14BD0100FD9C0000AE
:10170000F5A300009C050020191500009CB70100FE
:1017100001A5000030B595B0424B1A780023002A8D
:1017200000D17BE0051C00223E4B1A700188002985
:1017300004D13D483D4B984700236FE03C483D4B6A
:10174000984700230093102201920293281C04A9B9
:10175000394A3A4CA047041E07D0394B9847011C20
:101760003848344B9847231C58E004A836490122D6
:10177000364B9847041E07D0314B9847011C34481C
:101780002C4B9847231C49E02A8804A82E492F4B4C
:101790009847041E07D02A4B9847011C2D48254B1B
:1017A0009847231C3AE02C48204B984704A82B4B21
:1017B0009847041E07D0224B9847011C28481D4B10
:1017C0009847231C2AE0274B1B68002B0AD004A84B
:1017D00025499847041C1A4B9847011C2348154B70
:1017E000984709E004A8224B9847041C144B9847DB
:1017F000011C20480F4B9847002C08D0201C104B90
:101800009847011C1C480B4B9847231C06E0059B7E
:101810009B68AB6504A8194B9847031C181C15B0AE
:1018200030BDC04620010020587801003547010036
:10183000807801001546010003010500ADA30000FA
:1018400061500000A878010068BA010035A30000CB
:10185000D0780100F87801002079010069150000B6
:10186000387901009C05002094A5010060790100F1
:101870001915000080790100A0790100B58E0000E3
:1018800008B501800122024B1A70024B984708BD2F
:10189000200100201517000010B50C1C034B9847C1
:1018A000031E02D1201C024B984710BDF5A3000077
:1018B0006915000008B502490022024B984708BD8F
:1018C000AD1400004529000010B50C1C064B9847CC
:1018D000031E08D1054BDA68002A00D1044A201CF7
:1018E0000449054B984710BDF5A300008C05002066
:1018F00094A5010014BD010035A3000010B582B00D
:101900000C1C0E4B1B8801930D4B9847031E13D1E3
:10191000019B191D201C0B4B9847031E0CD1201C4A
:1019200001A90422084B9847031E05D1034B5968AF
:10193000201C019A044B984702B010BD8C05002072
:10194000F5A30000099E0000359F00000122014B15
:101950001A7070472001002000280AD00368002B6D
:1019600007D00822037A1343037210300368002B58
:10197000F8D1704770B5A2B0041C03681D6D002D2E
:1019800043D00379002B02D0012B11D01DE000239E
:1019900002AA13702D480221A847002815D1049BE4
:1019A0000193E823019AE250059A0433E2500CE0D7
:1019B000012302AA1370E733C3580493EC23C358DE
:1019C0000193059321480221A847002302AA13701E
:1019D00023681B6D1D48012198470D23002832D133
:1019E000039B019390235B00019AE250251C103564
:1019F000383BE1580433E258281C154CA0470499A1
:101A0000059A281CA04700231DE0DA6C0D23002A4C
:101A100019D002A880219047051C0B23802812D8DA
:101A2000012252421633FF33E250261C1036383B57
:101A3000E1580433E258301C054CA047301C02A981
:101A40002A1CA0470023181C22B070BD02004000D1
:101A5000D54D0000F0B591B0041C0D1C03921E1C66
:101A6000103004AF391C01220B4B9847F0340D9411
:101A70000CAC302323700E95281C084B98476070DF
:101A80000F972023A37000960DA8211C0322039B0F
:101A9000034CA04711B0F0BDE14D000033490100F7
:101AA000354F0000F0B557464646C0B4B7B0051CE8
:101AB0000E1C8368D74A934241D0D74A934200D143
:101AC00088E0D64A0D20934200D00FE22B79002BFC
:101AD00007D1281CD24924AA2033D24CA047031C8A
:101AE00006E0281CD04924AA2023CE4CA047031C82
:101AF0000D20002B00D0F9E11CAB0093301CCB492A
:101B0000CB4A18ABCB4CA047031C0D20002B00D0B8
:101B1000ECE11C9B202B00D0E8E124A8189920229E
:101B2000C54B9847031C0D20002B00D0DEE1281C7C
:101B3000103024A92022C14B98470020D6E1031C75
:101B4000E833021CEC32009218AA01921CAA0292FD
:101B5000081CB649BA4AB74CA047041C0D20002CFB
:101B600000D0C3E11C9B202B00D0BFE12B79002BC0
:101B700002D0012B08D01DE0281CA94924AA20234B
:101B8000A84CA047041C15E0281C311CAD4B9847FD
:101B9000031C0D20002B00D0A8E1281CA24924AA78
:101BA0002033A04CA047041C281C103024A920225C
:101BB000A24B98470D20002C00D097E124A818993B
:101BC00020229D4B9847031C0D205A1E93415B42D7
:101BD00018408BE103681B6D002B00D16FE1037986
:101BE000002B05D18E491CAA20338E4CA04704E05F
:101BF0008D491CAA20238B4CA047002800D060E10F
:101C0000301C09A9904B9847002800D059E1099849
:101C10008E4905228E4B9847002800D051E1301C98
:101C200014A928228B4B9847002800D049E1844B07
:101C300000930AAB01930CAB02930BAB03930DAB78
:101C40000493301C7949844A1B2302ACA4466344A4
:101C5000784CA047002800D033E11B2302AA944609
:101C600063441B78002B00D02BE10C9B202B00D071
:101C700027E10D9B202B00D023E10A9824A92022E4
:101C8000764CA0470B982DA92022A04710239C46F4
:101C9000AC44634667460693181C0A992022674C99
:101CA000A047381C0B992022A047301C6C491B22EE
:101CB00002AB9C4662445F4B9847002800D000E18D
:101CC0001B2302AA944663441B78002B00D0F8E043
:101CD00006981B2161440122584B9847301C09A9E2
:101CE000594B9847002800D0EBE009985D49052240
:101CF000574B9847002800D0E3E0301C18A9612218
:101D0000544B9847002800D0DBE00024564B9A46FD
:101D1000E0239846301C51460FAA0EAB454FB847FA
:101D200000283ED106980F990E9A444B9847E82018
:101D30004E4B9847071E0ED102204D494D4A4E4B3F
:101D40009847231C002800D1C6E04C48311C4C4B5E
:101D50009847231CC0E00E9B03600F9B07934360D2
:101D60000EA9484B984700280DD0251C0220404959
:101D7000454A414B9847002800D1A8E04348311C10
:101D80003F4B9847A3E0002C07D13A1C48321CA8CF
:101D900024A93F4B9847002838D14346FC503C1CAF
:101DA000B8E70C2824D1301C18A93A4B98470028D2
:101DB00021D1301C14A9374B984700281ED1002C84
:101DC00000D17EE0201C0021334B98470023984629
:101DD000984279D110AA0133137094602B681B6D5F
:101DE0000D480321984743424341DBB298466BE0DC
:101DF000271C231C04E0271C231C01E0271C231C98
:101E000000229046002B4BD1002F63D0381C234B6F
:101E100098475FE0020040000400400001004000DD
:101E2000687A0100551A0000587A01004CBE010082
:101E30009CB90100FD9C0000F33E0100D54D00005F
:101E4000847A0100751900001D9A0000EC7A0100E7
:101E500041490100A9910000F47A0100A94C000059
:101E6000E49E0100FC7A01003C7B010065B50000A6
:101E7000087A0100DE020000095000007C7B0100AE
:101E8000154601000D2C0000E6020000A87B0100B1
:101E9000514D000009920000D130000071B50000E2
:101EA000E026154FA559002C01D0201CB8472C1E48
:101EB000F8D100204346002B18D10D3016E00D203C
:101EC00014E000239846F4E7002CE9D1F1E7002D57
:101ED00007D19BE70D2009E0002BFBD0002398469B
:101EE000DEE7002398469C42DAD10D2037B00CBCC7
:101EF00090469A46F0BDC04671B50000114B98421D
:101F00000CD0114B984210D0104B984217D1104B67
:101F10001868013843425841C0B211E00C4B586870
:101F2000013843425841C0B20AE00020022907D9D3
:101F3000074B9868013843425841C0B200E0002086
:101F40007047C0460200400004004000010040000D
:101F5000A00500200A4B984209D00A4B98420AD0AB
:101F6000094B98420AD10122084B1A6006E001226F
:101F7000064B5A6002E00122044B9A607047C0464B
:101F8000020040000400400001004000A0050020C5
:101F900070B5051C0C1C8168C3685E1A04D04368C8
:101FA0001819321C044B98476B681A19AA60341927
:101FB0001C19EC6070BDC046233F0100F0B589B02C
:101FC000051C0C1C04A96122144B9847144E154F94
:101FD000237800930395281C311C134A3B1C134D96
:101FE000A847636800930398311C114A114BA84716
:101FF000637800930398311C0F4A3B1CA847638801
:102000000093039C201C311C0C4A0D4BA847201C3C
:1020100004A90C4B9847002009B0F0BDA99F00000F
:1020200064C00100E49E0100E87B010035A30000CC
:10203000F07B010044BA0100F87B0100007C010044
:1020400068BA0100D99F000070B594B0041C0D1C43
:10205000002A3ED020E02A686B68201C039998472C
:10206000021C03E02448254B98471122002A3ED049
:10207000201C04A9224B984739E0201C04A9214BBD
:102080009847201C01A9204B9847029801991F4BA3
:1020900098470028DFD0E5E71D48211C2A1C1D4B6E
:1020A0001D4EB047201C03A902AA1C4B9847021ED4
:1020B000DED1E2E7201C04A9124B984704A802993C
:1020C000174B98476B6804A803992A689847021C25
:1020D000CCE70F48211C2A1C124B0F4EB047201C86
:1020E00003A902AA0D4B9847021EC1D1E2E704A83A
:1020F0000D4B984714B070BD087C010035470100B6
:1021000011A50000F5A300001D9A00000F49010071
:10211000287C0100507C010015460100317C000044
:10212000CDA00000547C0100B58E00008378002B08
:1021300001D0023000E000207047C046F0B597B0F3
:10214000061C0D1C0591141C1F1C1348311C2A1C55
:10215000231C124DA847002C00D1114C00230093E2
:102160000197104B0293301C06A90F4A0F4B104EDB
:10217000B04700280DD106A80E49059A0E4B984786
:1021800006A8211C0D4B9847002802D106A80C4B2D
:10219000984717B0F0BDC046987D01001546010074
:1021A000E07B0100B80B00000800010080B80100CE
:1021B00055A3000068BA010035A30000BD1F000050
:1021C000B58E000030B595B0041C0D1C0D48211CC7
:1021D0002A1C0D4B98470023009301930B4B02934D
:1021E000201C04A90A4A0B4B0B4CA047002807D11E
:1021F00004A80A492A1C0A4B984704A8094B984787
:1022000015B030BDD07D010015460100B80B0000AF
:102210000900010080B8010055A3000068BA010060
:1022200035A30000B58E000030B595B0041C0D1C20
:102230000D48211C2A1C0D4B984700230093019345
:102240000B4B0293201C04A90A4A0B4B0B4CA047D2
:10225000002807D104A80A492A1C0A4B984704A859
:10226000094B984715B030BDFC7D010015460100B3
:10227000B80B00000C00010080B8010055A300005D
:1022800038DB010035A30000B58E0000F0B595B035
:10229000061C0D1C141C1148311C2A1C231C104F39
:1022A000B8470023009301930E4B0293301C04A9FE
:1022B0000D4A0E4B0E4EB04700280CD10D4E04A80F
:1022C000311C2A1C0C4DA84704A8311C221CA8470D
:1022D00004A80A4B984715B0F0BDC046A47E010083
:1022E00015460100B80B00000F00010080B8010086
:1022F00055A3000038DB010035A30000B58E0000B7
:10230000F0B599B005900D1C171C1E1C5442544189
:1023100007231C1B234805992A1C3B1C224FB84746
:10232000002300930196214B0293059808A9221CD3
:102330001F4B204CA047041E30D1002307931322CB
:1023400002A98C46624413701E9B002B05D0099B8A
:102350009B6805931E9B059A1A60281C164FB84768
:102360000790411D08A8154B9847041C08A807A909
:102370000422134EB047281CB847021C08A8291C89
:10238000B04708A8132102AB9C4661440122B04724
:10239000002C03D108A80B4B9847041C201C19B033
:1023A000F0BDC046E47E010015460100B80B0000F8
:1023B00078B4010055A3000033490100099E0000D4
:1023C000359F0000B58E000010B582B00024009447
:1023D000014CA04702B010BD0123000010B500233E
:1023E000014CA04710BDC046C923000030B591B0D4
:1023F000051C0C1C0948291C221C094B9847281C49
:102400006946084B984768460749221C074B98477E
:102410006846074B984711B030BDC0469C7F01000D
:1024200015460100F5A3000044BA010035A30000E1
:10243000B58E0000F0B59FB0041C066BB848211C97
:10244000B84B98470DA800214022B74B98476368C6
:10245000002B00D131E25978B448B24B9847236839
:10246000A022D202934200D128E138D8B04A934248
:1024700000D1DBE018D8AF4A934200D111E106D871
:10248000022B00D10DE1AC4A93426DD0E4E1AB4A9E
:10249000934200D1B8E0AA4A934200D1BDE0A94AD4
:1024A000934200D0D8E1A6E0A74A934253D00AD87D
:1024B000A64A934200D1CBE000D2C0E0C0229202F3
:1024C00093426DD0C8E1A24A93427CD0A14A934284
:1024D00000D181E0A04A934200D0BDE148E09F4A8C
:1024E00093421BD89E4A934200D3DEE0C022D20220
:1024F000934200D1FBE008D89A4A934200D1E4E02D
:10250000994A934200D1E9E0A6E1984A934200D16A
:10251000F4E0974A934200D1F9E09DE1954A934255
:1025200000D1B6E00AD8944A934200D199E000D98C
:10253000ABE0924A934200D1AFE08DE1904A9342E2
:1025400000D196E08F4A934200D196E08E4A9342A2
:1025500000D081E189E08D488D4B9847201C0DA962
:102560008C4B9847051C87E18B48894B9847A6E11F
:102570008A48874B98478A48211C0DAA694B98477F
:10258000201C0DA9834B9847684604A92122854B3E
:1025900098470DA8844904AA844B9847051C6BE111
:1025A0006368597882485F4FB8478248784B9847AC
:1025B000201C0DA90022804B9847051C63685978A0
:1025C0007E48B84758E17E48714B9847201C0DA9BA
:1025D0007C4B9847051C4FE17B486D4B9847201C6E
:1025E00071491DAA794B9847201C0DA91D9A724B61
:1025F0009847051C40E17648654B9847201C0DA97B
:10260000744B9847051C37E17348614B9847201C71
:102610000DA9724B9847051C2EE171485C4B9847F9
:10262000201C0DA96F4B9847051C25E16E48584B9F
:102630009847201C0DA96D4B9847051C1CE16C4860
:10264000534B9847201C0DA96A4B9847051C13E172
:1026500069484F4B9847201C0DA9684B9847051CAB
:102660000AE167484A4B984729E16648484B984732
:1026700025E16548464B984721E16448444B98471B
:10268000201C634B9847051CF6E06248404B984776
:1026900015E161483E4B984711E160483C4B984733
:1026A0000DE15F483A4B984709E15E48384B98473F
:1026B00063685B78032B00D001E10CE15A48344B8E
:1026C0009847201C594B984711E15948304B98477F
:1026D000201C0DA9574B9847051CCDE056482C4BA4
:1026E0009847201C0DA9554B9847051CC4E0544839
:1026F000274B9847201C534B9847F8E05248244BEF
:102700009847201C0DA9514B9847051CB4E0504830
:102710001F4B9847201C0DA94E4B9847051CABE05A
:1027200038800100154601004B3F01005C8001002C
:1027300004010200010002000A0001000101020080
:102740000201020000010200000103000601020074
:1027500000020300010203000101030005000180E3
:1027600004000180010105000201050003010600CB
:102770000401060002010280000102800C000180B9
:1027800005010280060102800401028078800100B8
:1027900035470100F5A30000A4800100BC800100C2
:1027A000F08001003165000014BD010035A3000078
:1027B0001C810100388101000D8100006881010049
:1027C00084810100F1710000C0810100FD9C0000C6
:1027D000FC8101001DAC00003082010061B20000EC
:1027E00064820100DDB300009C820100A5AE000000
:1027F000D0820100F9AF000004830100B1B00000F5
:102800003C8301007C830100C0830100008401003F
:102810000DB100004484010088840100D0840100CF
:102820001485010058850100AC850100A116000047
:10283000C4850100B5160000E0850100991800006C
:1028400004860100B518000020860100C9180000A8
:102850003C860100FD1800002648274B9847636816
:102860005B78012B2BD12548234B9847201C0DA9C1
:10287000234A244B9847051C281C234B9847011CCE
:102880002248234FB847636859782248B847281E22
:102890002DD163685B78012B07D11F48164B9847F1
:1028A0000DA81E4B9847031E21D11D48124B984777
:1028B000301C1C4B9847002019E0002017E0002036
:1028C000114B9847011C1148114DA847636859786E
:1028D0001048A847DDE713200B4B9847011C0B4815
:1028E0000B4DA847636859780A48A84713201FB0C2
:1028F000F0BDC0465C8601003547010088860100B6
:10290000E4B5010001A50000615000009C860100B3
:1029100015460100B4860100CC860100B58E00008A
:10292000F48601001517000038B5041C0D1C03487F
:10293000211C2A1C024B9847E56438BD088701001A
:1029400015460100F0B583B0041C0D1C161C074889
:10295000211C2A1C331C064FB84700960195201CE9
:1029600069460022034B984703B0F0BDD4870100AD
:102970001546010049200000F0B583B0041C0D1C71
:10298000161C0748211C2A1C331C064FB84700960A
:102990000195201C69460122034B984703B0F0BD06
:1029A0000C8801001546010049200000F0B54F4693
:1029B0004646C0B483B0002913D0171C0D1C061C5A
:1029C00000240A4B99460A4B9846A3089B00985945
:1029D000C8470190381901A90422C0470434A54210
:1029E000F3D803B00CBC90469946F0BDD1B40000BA
:1029F000113F0100F0B5474680B4002851D0002AAD
:102A000051D04468002C50D005680323002D4FD0CE
:102A1000631C9846436026786B1E9C4603605F23C8
:102A2000371C9F43A02F01D01F231E4003238E423B
:102A30003ED14346002B3AD06346002B37D0A31C2F
:102A400043606378023D0560D90916D07F241C409D
:102A5000042C2CD8002C14D0002D14D0291C0023B9
:102A60001B024668771C47603678F318013901600D
:102A70006E1AA64201D00029F2D10168994216D3FC
:102A800002E0002300E000231360416851604168C8
:102A90008C466344436013680268D31A03600023C2
:102AA00006E0032304E0032302E0032300E0032302
:102AB000181C04BC9046F0BD0CB4F0B5474680B479
:102AC00082B000282ED00323002931D009AB019316
:102AD000089B002B2AD00368002B25D0051C0C1C5A
:102AE000089B5E1E8E1960235B429846144F217826
:102AF000A02906D1019B1A1D01921968434619436A
:102B0000C9B2019B1A1D01921A68281CB8470028F7
:102B100006D1B4420AD001342B68002BE7D103E080
:102B2000031C05E0032303E00320F9E70020F7E797
:102B3000181C02B004BC9046F0BC08BC02B0184798
:102B4000F529000010B504680023944206D14068BE
:102B5000221C034B984743424341DBB2181C10BD73
:102B6000F33E0100F0B589B0061C0D1C00211022B7
:102B7000214B98471124214F38E0281C211C06AA1C
:102B8000B847002836D106A8102104AA1B4B984745
:102B900000282FD104A8062102AA184B9847002824
:102BA00028D102A816490322164B984700280BD0BB
:102BB00004A80C216A46114B984700281AD1019BA2
:102BC0007360009B336011E002A80F4903220D4B94
:102BD000984700280AD004A80C216A46074B98475A
:102BE000002807D1019BF360009BB3602B68002B8A
:102BF000C3D1002009B0F0BD4B3F0100F529000012
:102C000010890100452B000004890100F0B5BDB01A
:102C1000051C0E1C102231AB1A7030A8AB490431D0
:102C20000D3AAB4B9847002D00D11BE20324002E38
:102C300000D129E2301C31A901223AABA54CA047B2
:102C4000041E00D020E236AB009332AB01933AA8C9
:102C500030A9032238AB9F4CA047041E00D013E2DA
:102C6000399B0B93043BEB60389B0433AB602C1C0B
:102C7000103420A8954908310822954B9847201C0C
:102C800000218822944B984710AB0093019412AB1B
:102C9000029314AB039316AB049318AB05931AABD2
:102CA0000693032307931CAB089338A820A9082296
:102CB0000023884CA047041E00D0E5E110A80221A3
:102CC0001EAA864B9847041E00D0DDE103241E9BFC
:102CD000012B00D0D8E11F9B1B78022B00D0D3E141
:102CE00012A806211EAA7D4B9847041E00D0CBE1F6
:102CF0001EA87B4908227B4B98470324002800D15B
:102D0000C2E1281C183014A9774B9847041E00D044
:102D1000BAE1281C2830002110226F4B98470D245F
:102D2000169B002B00D13FE1179B1B78172B02D07D
:102D3000182B0FD046E016A817212EAA674B9847EC
:102D4000041E00D030E12F986849694B9847A8626B
:102D5000E9620DE016A818212EAA604B9847041EC0
:102D600000D021E12F986349614B9847A862E9623E
:102D70000D24169B002B00D116E1179B1B78172BF7
:102D800002D0182B0FD01DE016A817212EAA534BE6
:102D90009847041E00D007E12F985449544B984798
:102DA0002863696368E116A818212EAA4B4B98473F
:102DB000041E00D0F8E02F984E494D4B98472863E9
:102DC000696359E103245FE12E1C48363F4C211C06
:102DD000103124A802223E4FB847211C143126A8E6
:102DE0000222B847301C00214C223B4B98472AABAB
:102DF00000931AA824A9022228AB364CA047041E2F
:102E000000D0D1E02EAB009328A826A902222CAB3B
:102E1000304CA047041E00D0C6E02CA8364907223B
:102E2000304B98470324002800D1BDE02EA8334939
:102E300008222C4B9847002800D1B5E02A9B422B52
:102E400000D0B1E02B980378002B00D0ACE04378A1
:102E5000042B00D0A8E002302B903C332A93311C85
:102E60002022274CA0472B9B0B93181C20302B9023
:102E70002A9B203B2A93291C6C312022A047134C0B
:102E8000211C183102260DA8321C114FB847211CF5
:102E90001C310FA80322B847211C20310EA8321C78
:102EA000B847281C9430002104220B4B98471CA8DB
:102EB000102122AA094B9847041E75D1229B1C930E
:102EC000239B1D930E3694276AE0C046D4880100E8
:102ED000113F0100B92A00004B3F0100F529000015
:102EE000FC880100452B0000652B0000548901007F
:102EF000B9B400006489010008890100B0890100AB
:102F0000A94C00001CA8311C24AA614B9847041E40
:102F10004AD1249B2693259B0B93279328AB0093A0
:102F20002EAB019324A80FA903222CAB594CA04728
:102F3000002809D02EAB009326A80DA902222CABA5
:102F4000544CA047041E2FD12CA853490322534BA5
:102F50009847002824D02EA8311C24AA4C4B98470F
:102F6000041E21D1249B002B1AD02693259B0B9362
:102F700027932AAB009324A80EA9022222AB454C2A
:102F8000A047002806D026A8012122AA404B984736
:102F9000041E09D1229B002B02D0239B1B78EB51EE
:102FA0001C9B002BAED10024002C6DD136A806212D
:102FB00034AA374B9847002856D134A838490822FC
:102FC000364B9847002851D0329B002B50D0339A73
:102FD000117800294ED101323392013B329328A857
:102FE000304924310222304B984732A810212AAAB6
:102FF000274B9847002831D12EAB00932AA828A947
:1030000002222CAB234EB047002829D12C9B002B49
:1030100007D02D9A1178002903D101322D92013B5E
:103020002C932E9B002B07D02F9A1178002903D1C7
:1030300001322F92013B2E932E1C9836301C00211A
:1030400048221A4B98472D98311C2C9A184EB0479D
:10305000291CBC312F982E9AB04715E0041C13E0B0
:10306000041C11E003240FE0041C0DE003240BE01A
:10307000032409E0032407E0281C383018A90D4B6D
:103080009847041E00D19FE6201C3DB0F0BDC0460D
:10309000F5290000B92A0000AC890100452B000089
:1030A000FC880100D4880100113F01004B3F010062
:1030B000A94C0000652B000010B5021C0B1CC06859
:1030C00011899832014CA04710BDC046854D0000C3
:1030D000F8B54F464646C0B4051E25D0002904D099
:1030E000281C1A4B984700282CD1E023EC58002CC0
:1030F0001CD0AA6BE86B2E6C6B6C9846E169236A56
:10310000676AB946A769BA4212D19E4212D1104BE2
:103110009847002810D140464946321C0C4B98472E
:1031200000280BD00D200DE000200BE0002009E06E
:103130000D2007E00D2005E00D2003E0291C48319B
:10314000251CCBE70CBC90469946F8BDB930000071
:10315000F33E010038B5041C0D1CC068074B9847AE
:10316000281C074B9847E3689C466044E06005488C
:10317000054B98472369201C984738BD2349010017
:1031800033490100CC89010035470100F0B54746BD
:1031900080B494B0184B1B7800240A2B27D80190D8
:1031A00016490022164B9847041E20D102A8154B41
:1031B0009847154E154F164B984612E0019804A9F2
:1031C000144AB847041E0CD10125134B049A9A42A5
:1031D00003D004A8114B9847002504A8C047002D30
:1031E00005D102A80121B0470D4B9842E6D9201C19
:1031F00014B004BC9046F0BDCC060020EC89010060
:10320000DD23000035B50000F1B400008D9400000E
:1032100025900000B80B0000060000803524000057
:10322000B70B0000014B18787047C0462101002001
:103230007047C046014B18787047C046CC06002046
:10324000F0B5A9B0041C5423C35C0020002B00D0AF
:10325000C2E0626A1370636A01336362251C183529
:10326000281CA36A9847002800D0B5E0261C3036F9
:10327000281C5A495A4B9847002813D1618E636B1A
:10328000E26B9B1AC918301C564A236C98470028D9
:1032900008D1A06B54490222544B9847222300289E
:1032A00037D178E0002820D1618E636BE26B9B1AE6
:1032B000C918301C4B4A236C9847002815D1A66BBF
:1032C000301C4B491422494B98472223002820D117
:1032D000301C1530474B9847C0B2474B1870474BCE
:1032E0001A782723824214D85AE0002874D1002388
:1032F000009304330193424B0293201C08A900223F
:10330000404B414DA847031E03D108A83F4B9847A7
:10331000031C181E60D1201C18A9394A3C4B984741
:10332000002859D1199B5B78032B0CD10130394906
:103330003E22FF32384B98470725002822D03748D5
:10334000374B98471EE018A808A9364B9847051E2A
:1033500018D108AB5E88132E0CD901202D49A42268
:1033600052002D4B98470B3500280BD02E482C4B84
:10337000984707E0A01C0999321C2C4B9847A619C6
:103380000023B37018A82A4B9847281E24D1012285
:103390005423E25420E0281C2649114B984781E72A
:1033A00008AE254B1A6808929A88B2809B79B3714F
:1033B000301C224FB847311804A82122204B9847CF
:1033C000301CB84730181F490222184B9847281C58
:1033D000311C034B984788E729B0F0BD388A0100BB
:1033E00055310000AC0D0000488A0100F33E010099
:1033F0004C8A01003D3E0100CC0600202101002046
:103400008813000078B4010055A30000B58E0000B9
:103410008D940000648A010009500000908A010028
:1034200035470100FD900000B48A0100113F010002
:1034300025900000D88A0100F48A01003349010078
:1034400031650000E8D6010010B5041C044B984714
:10345000201C1830034B98470022034B1A7010BDF4
:103460000D74000095A90000CC06002070B50F4B2C
:103470001A68002A13D084680D491D1C3C3504E0ED
:103480005A6804330231002A0BD0A24203D10E88BD
:103490008288964207D0AB42F2D1002004E000209F
:1034A00002E0002000E0012070BDC046AC05002015
:1034B000F0050020F0B55F4656464D464446F0B450
:1034C0006D4B1C78022C00D9ACE0271C01239946D7
:1034D000ABE05946891A8846191C9D68002D04D115
:1034E0009D6A002D00D0BEE066E08668B54204D13A
:1034F0009D88AA468588AA450AD08D6A002D39D0B4
:10350000866AB54236D18D8CAA46858CAA4531D1C2
:1035100043461B0142469B1A9B00584AD3181A691E
:1035200003699A420ED2554C424612014146511A45
:10353000890061180B6181894346D21A9200A31851
:10354000998192E09A4200D08FE0828943461B0124
:1035500041465B1A9B004949CB189B89934200D195
:1035600083E043461B0141465B1A9B004349CB184D
:103570009A817AE0032C1BD10D69AA463D01ED1B0F
:10358000AD003E4EB44665442D69AA4510D80CD313
:103590003D01ED1BAD00654489898A46A9898A45AC
:1035A00006D947460121894602E04746012189465E
:1035B000013A3C33002A8CD14B46002B55D0032CCA
:1035C00012D102693B01DB1B9B002C49CB181B6904
:1035D0009A424AD32ED13B01DB1B9B00CB18828938
:1035E0009B899A4226D340E024493B01DA1B920092
:1035F0008A188568956085889580856A9562858C2E
:1036000095840678DD1BAD006E54056915618289CD
:10361000DF1BBF00CF19BA81022C26D80134164B0C
:103620001C7022E0002700239946144B032203213B
:103630008B464EE711493B01DA1B92008A188468D9
:10364000946084889480846A9462848C94840578DD
:10365000DC1BA4006554046914618289DB1B9F0094
:10366000CB199A8101E09D6A4AE73CBC9046994695
:10367000A246AB46F0BDC046CD060020180600208D
:10368000014B18787047C046CD06002008B50648A3
:103690000021B422054B9847054B00221A609A80FE
:1036A000044B1A7008BDC046180600204B3F0100AD
:1036B00010060020CD060020F0B54F4680B4344BF4
:1036C0009B68002B03D1324A926A002A50D0836053
:1036D0002F4B9A8882809A6A82629A8C82841A69B5
:1036E00002611A7802709A8982812A4D2E783C33C1
:1036F000002294460132191C9C68002C02D19F6A5A
:10370000002F39D06F88002F2BD1002E0FD084606E
:103710008C8884808C6A84628C8C84840C690461BB
:103720000C780470898981819446002619E00F691C
:10373000B9460769B94514D305D812D18F89B9465E
:103740008789B9450DD284608C8884808C6A8462B4
:103750008C8C84840C6904610C7804708989818163
:1037600094460132D2B202353C33032AC3D103E07E
:10377000094B9847072008E00A20002E05D1634630
:103780005B000121034A9952002004BC9146F0BD20
:1037900018060020100600208D360000F0B54F46B8
:1037A0004646C0B495B001900C1C161C0021602246
:1037B000554B9847554B9847002C00D1544C03A8C3
:1037C000544B98475448554B9847554B1B68201C01
:1037D00005A9321C534CA047041E06D0524B9847F3
:1037E000011C5248524B98477BE052484B4B98473C
:1037F000019805A9504B9847041E06D04A4B98479C
:10380000011C4E484A4B98476BE001984C4B984737
:10381000041E60D0444B9847011C4A48444B9847CB
:1038200049483E4B9847494B9C461B78484D980069
:1038300005AA079F4751474F58009188C15301334C
:103840000F2189460B4099000F9848515D00928CDA
:10385000EA5301334A4613406246137003A800211D
:103860003D4B9847361A002E2DDD3C4F2B4D05A8B9
:10387000B8470A2826D03A48A847019805A92E4BF0
:103880009847041E06D0284B9847011C2B48284B0C
:10389000984726E001982A4B9847041E1BD003A89E
:1038A00000212D4B9847361A002EE0DC0BE01E4B12
:1038B0009847011C2B481E4B984712E02A4DA847F9
:1038C000A8471AE00724201C174B9847011C1D48E5
:1038D000174B984705E00198244B9847041EEDD0FC
:1038E000E5E7214B9847201C0F4B9847011C2048C7
:1038F0000F4B984701981F4B9847201C15B00CBCE4
:1039000090469946F0BDC0464B3F01005966000005
:10391000B889010035B50000FC8A01003547010077
:1039200024010020055E000061500000308B010082
:1039300015460100608B01008DA80000788B010006
:1039400041320000AC8B0100E08B0100EC0500204F
:10395000AC050020F0050020F1B40000B9360000ED
:10396000148C0100588C01008D3600008D31000050
:103970008C8C01004934000008B509480021402220
:10398000084B9847084A0023136053609360D36044
:10399000136153619361D361044A137008BDC0463B
:1039A000AC0500204B3F0100F0050020EC05002095
:1039B000F0B583B0071C0E1C01921D1C0748391C72
:1039C000321C019B064CA04700232B600548391C84
:1039D000321C019BA047002003B0F0BDB08C010059
:1039E00015460100E08C010038B5041C018883787D
:1039F00012486268124DA847002300221A60002C6A
:103A00000DD101200F494422FF320F4B9847132359
:103A1000002811D00D480E4B984713230CE00120CD
:103A200008495422FF32084B98470023002803D04E
:103A30000848074B98470023181C38BDB08C01007C
:103A400015460100108D010009500000388D01005D
:103A500035470100688D010030B589B001AC012502
:103A600025800F35A57002900393002323730593DF
:103A7000A2820791201C024B984709B030BDC04676
:103A8000E939000010B5021C044801211023044C40
:103A9000A047002300221A60132010BDB08C010043
:103AA0001546010010B5021C0B1C0120111C102230
:103AB000014CA04710BDC046B139000010B5002828
:103AC0002AD0041C8178002909D04068002806D03B
:103AD000124B98476068124B98470023A370217BD4
:103AE000002909D02069002806D00C4B984720698E
:103AF0000B4B984700232373A18A002909D0A069A2
:103B0000002806D0054B9847A069054B984700232D
:103B1000A382201C024B9847002010BDA5B40000D2
:103B200071B5000010B582B0041C6846064B98477A
:103B3000019B0320002B05D0A268934201D32030C3
:103B400000E0002002B010BD35B5000010B582B015
:103B5000041C0B1C00210091111C221C014CA047CD
:103B600002B010BDF5B5000070B5051C0C1C101C92
:103B700000211A1C0023084EB047226863681218FF
:103B80004B41994202D804D1904202D929680131AF
:103B900029602260636070BD7929010070B5041C42
:103BA0000D1C101C00211A1C00230D4EB0472A6862
:103BB0006B6812184B41994202D804D1904202D945
:103BC00026680136266012184B41994202D804D16A
:103BD000904202D92168013121602A606B6070BD7A
:103BE00079290100F0B5141C1C4345D00C68002550
:103BF000A41A9D4104602E1CEF174C680025A419DF
:103C00007D4144602E1CEF178C680025A4197D416E
:103C100084602E1CEF17CC680025A4197D41A418E0
:103C20005D41C4602E1CEF170C690025A4197D416D
:103C300004612E1CEF174C690025A4197D414461D5
:103C40002E1CEF178C690025A4197D41A4185D4135
:103C500084612E1CEF17CC690025A4197D41A41A9C
:103C60009D41C4612E1CEF170C6A002536196F4167
:103C700092197B41026208E0884206D0031C15C9F4
:103C800015C315C915C315C915C3F0BDF0B5574601
:103C90004E46C0B485B082468946101C00210023E0
:103CA00000240093019443580293002303934B464E
:103CB0005E580027029A039B92197B41009C019D4C
:103CC00012196B4154466250009300230193043152
:103CD0002429E8D105B00CBC91469A46F0BDC046F7
:103CE00010B5041C054B9847206AC11700234242B7
:103CF0008B41201C211C024CA04710BD8D3C0000B4
:103D0000E53B0000F0B557464E46C0B485B082464C
:103D10008946101C0021012300240093019443587C
:103D2000DB430293002303934B465E580027029A1D
:103D3000039B92197B41009C019D12196B415446D3
:103D4000625000930023019304312429E7D105B088
:103D50000CBC91469A46F0BDF0B55F4656464D46BE
:103D60004446F0B4CBB011908B460B9210930B6A83
:103D7000002B00D0DAE20B1C1C330822561E1968F7
:103D8000002900D0A4E2043B321EF7D1DBE252004E
:103D9000531E002B00DDA8E000239A464FE1089255
:103DA00001E009230893089BF3185A1E9246002746
:103DB000002A0BDC00239A4641E1511E18680028B6
:103DC000EDD1043B0A1EF8D10891ECE701239B1BBF
:103DD0000A930B9B994606970A9BDC19E343DB1772
:103DE0001C403B1B98469D002B1C5B440093A60087
:103DF0004E44089B5A1E3B1E934200DD131CE31ADF
:103E00000833082B4ED89B00E04AD3589F46009BAE
:103E1000203B1A6825A822A9336ADD4DA847009BDC
:103E20001C3B1A6825A822A9F369D94DA847009B15
:103E3000183B1A6825A822A9B369D54DA847009B4D
:103E4000143B1A6825A822A97369D14DA847009B85
:103E5000103B1A6825A822A93369CD4DA847009BBD
:103E60000C3B1A6825A822A9F368C94DA847009BF6
:103E7000083B1A6825A822A9B368C54DA847009D2C
:103E8000043D2A68736825A822A9C14DA847434666
:103E90009B005A469A58A4004B46E35825A822A9ED
:103EA000BB4CA047069BDB0026AA94466344002235
:103EB000229919605A60259B039300230293239B48
:103EC00004930023059302980399049B059CC01852
:103ED00061412290239125920137574500D07AE71E
:103EE0005346102B00DCAAE0FDE126AB9846531E9A
:103EF0009A460023994601339B1B04934D46534633
:103F000002930A960A9B013B2F1E9F4200DD1F1C55
:103F10002C1C6B1E5B10B9469F4200DD9946049B2A
:103F20009C466444E343DB171C402B1B9A469E00CF
:103F3000331C5B440093A3005B441F1C4B46E31AF5
:103F40000833082B4ED89B00924AD3589F46009BBB
:103F5000203B1A6825A822A93B6A8F4EB047009BD8
:103F60001C3B1A6825A822A9FB698B4EB047009B11
:103F7000183B1A6825A822A9BB69874EB047009B49
:103F8000143B1A6825A822A97B69834EB047009B81
:103F9000103B1A6825A822A93B697F4EB047009BB9
:103FA0000C3B1A6825A822A9FB687B4EB047009BF2
:103FB000083B1A6825A822A9BB68774EB047009E27
:103FC000043E32687B6825A822A9734EB047534649
:103FD0009B005A469A58A4005B46E35825A822A99C
:103FE0006D4CA04701232B4209D14F460137BF003A
:103FF0005B46FB5825A822A91A1C654CA047002344
:104000004246229911605360259A07920022069237
:10401000239A08920022099206980799089E099F00
:1040200080197941229023912593013508339C46CC
:10403000E044029B9D4200D064E79A4650E72299F3
:10404000239A5346DB0026A8844663440020544646
:1040500019605860111C021C01340833102CF7DD64
:10406000A246229123903EE140CA00271868596871
:10407000801BB94103C3A342F6D146E10B9B1B6AE7
:10408000002B00DB47E138A958464AAC40C800275E
:104090000A684B68921BBB410CC1A142F6D1002DAE
:1040A00000DB38E1002201234898499912184B415E
:1040B000489249932FE1109B002B04D026AC48ADC9
:1040C0000020002128E03EAB38AA2AAE986AD96ABF
:1040D000041C0C431BD0002400259C62DD621C6A7A
:1040E0005D6A24184D411C625D629C69DD69241A79
:1040F0008D419C61DD611C685D68241A8D411C60E6
:104100005D60146855680019694110605160083B92
:10411000083AB342DAD103E12268636812184B41CE
:10412000181CD9171F1C0026921BBB410CC4AC42A3
:10413000F2D1489B499CC01861414890499148ABD5
:104140009A460923049353460C93129E139F5FE0F3
:10415000049A9046112A47DC0B9B99460F4B9A46CE
:104160000024002500960197C3451BDB069808999B
:1041700053461A685B680A4EB0474B461A685B683C
:10418000121A8B4112196B4111E0C046A48D010037
:10419000693B0000C88D01009D3B0000388E010086
:1041A000792901004B461A685B6812196B41414638
:1041B000102909DC1C1CDD170193002100910098D7
:1041C0000199121A8B4101E00024002549460CC1D7
:1041D000894601239C46E04407339C46E24443461B
:1041E000122BC1D1009E019F0A9A13680693526850
:1041F0000892134304D0029B013B0293002BA7D1EA
:104200000C9B083B0C93049B5A1E049200D287E03F
:10421000049B0822944663449B460C9B0A931A68AD
:10422000111C06921A1C5B68181C08930B1C034394
:1042300003210291403A0B92002B89D1E0E70CCC8C
:1042400012184B4104C5181CD917B442F7D1109B62
:10425000002B0CD1119C236A0093181CD917002342
:1042600042428B41201C211C404CA04777E0119B0F
:104270001E6A002E73D00096002700240025F31735
:1042800002933B4E3B4B984600980299BA59002343
:10429000C0470019694119ABF8500E9000230F93E5
:1042A0000E9A0F9B801A99410C1CCD170437242FAE
:1042B000EAD11199081C19AA2F4B98474FE00B9B84
:1042C0001A6A0092002A00D06BE51C33083274E5AC
:1042D000161C0020002122902391002325930B9B84
:1042E0009B45ECD153E55346DB0026AA9446634434
:1042F0002299239A19605A605B461D6A002D00DBE3
:10430000BCE638AB0B9A4AACAEE60B9B1B6A002BA3
:1043100000DBD0E6B7E6109B002B00D1D3E6CDE65C
:1043200026AC119D38AE0020002188E70022002332
:10433000229223930023259309260B9B1232994244
:1043400000D1D2E5BBE70022002322922393002371
:1043500025930B9B9B45B2D100239A466FE64BB049
:104360003CBC90469946A246AB46F0BDE53B0000FA
:10437000108F010079290100053D000010B5041CD3
:10438000054B9847206AC117002342428B41201CED
:10439000211C024CA04710BD053D0000E53B00007C
:1043A00010B5026A0B6A01249A421FDC12DBC26953
:1043B000CB699A4211D812D30023C2189469CA1843
:1043C000926994420ED80FD3043B1A1C1C32F4D1CC
:1043D00000240BE00124644208E0012406E00124EB
:1043E000644203E0012401E001246442201C10BD6A
:1043F000F0B50A6A0123134052100262002201271D
:104400008C18E46985186608DB073343EB61043ACE
:10441000231C3B40141C2034F2D1F0BD70B5031CAA
:104420000A1C70CA70C370CA70C370CA70C32431CA
:1044300034C934C334C934C334C934C30023C36456
:10444000036543658365C36503664366836601331D
:10445000836470BDF0B55F4656464D464446F0B4A1
:1044600093B080460591364B9946924634E0CA4552
:1044700024D00393002600240025DB170493314B3E
:104480009B46574603980499BA590023D847001908
:10449000694109ABF050009000230193009A019B01
:1044A000801A99410C1CCD170436242EEAD1BA4645
:1044B0004046059909AA244B98470BE00693DB1761
:1044C000079306980799002342428B41404605997D
:1044D0001E4CA04743460593059B1B6A002BC6D183
:1044E00056461B4C184D474604E0381C0599321CB3
:1044F000A84705970598311CA0470028F5DA059ACA
:10450000131C116A009100290ADA124C3D1C111C7F
:10451000281C321CA047291C2B6A002BF8DB08E062
:10452000BA4206D03A1C13CB13C213CB13C213CB1F
:1045300013C213B03CBC90469946A246AB46F0BDB0
:10454000C88E010079290100053D0000E53B00000F
:10455000A14300008D3C0000F0B5474680B4A6B0F2
:1045600001901C1C00931DA8031C61CA61C361CA91
:1045700061C361CA61C314A8031C221C31CA31C3C0
:1045800031CA31C331CA31C30BAA131C15C915C3B3
:1045900015C915C315C915C30023029303930493CA
:1045A000059306930793089309930A933D4E3E4B58
:1045B0009846371C3EE01DA8011CB0470B9BDB074B
:1045C00003D50BA8011C009AC0470BA8011CB847D3
:1045D0001D9BDB07EFD5149BDB0712D4314D2C1C40
:1045E00014A8011CA847029BDB0704D502A8011CE4
:1045F000009A2D4B984702A8011CA047149BDB078B
:10460000EED51DA814A9294B9847002809DB1DA841
:10461000011C14AA264CA0470BA8011C02AAA04703
:1046200008E014A8011C1DAA214CA04702A8011CE7
:104630000BAAA0471D9A012A17D11E9B002B26D139
:104640001DAB24A99868002821D104338B42F9D1ED
:1046500011E0159B002B1ED114AB1BA998680028F4
:1046600019D104338B42F9D10BE0149B012BF0D00C
:10467000D307A0D5AFE701980BA9009A0D4B984737
:104680000CE0019802A9009A0A4B984706E0149B97
:10469000012BA0D1DDE7D3078DD5B2E726B004BC4E
:1046A0009046F0BDF14300008D3C0000A1430000A6
:1046B000053D0000554400000368002B09D1031D8F
:1046C00024301A68002A06D104338342F9D101202C
:1046D00002E0002000E000207047C046F0B54746E9
:1046E00080B4B8B080460B1C019148330093181C6D
:1046F000464B9847002809D0404600216C22444B85
:10470000984701234246136053627BE014A8009A45
:10471000111C00233F4EB0470BA8019F391C14AA5F
:104720003D4B984714A8391C021C3C4B98470BA8DA
:10473000011C14AA0023B0470BA914A800260027C7
:104740000C680025221C2B1C12196B4112196B419D
:1047500092197B4104C11E1C00278142F0D1019DAA
:104760002B1C24331A1C26A8191C2C4B98471DA857
:1047700026A9009A0023274CA04726A8011C021C4A
:104780000023A04702A826A92A1C0023A04726A888
:10479000011C021C0023A047269BDB070AD526A884
:1047A000011C012200231E4CA04726A8011C1D4B02
:1047B000984703E026A8011C1A4B98472FA80BA97D
:1047C0000A1C0023134DA84714A802A90A1C134B66
:1047D000984740462FA914AA0F4CA04714A802A935
:1047E0004246A04714A8011C0BAA0023A847404634
:1047F000243014A926AAA047404648301DA90A4AD9
:104800000A4B984738B004BC9046F0BDB94600004A
:104810004B3F0100593D00007D430000E13C00009A
:10482000E53B0000F1430000C88E01005544000044
:10483000F0B5B1B0041C0D1C171C936C002B06D0F6
:10484000884200D19FE06C22504B98479BE0482360
:104850009C468C446346009360464D4B9847002825
:1048600004D0201C391C4B4B98478CE027A8009B98
:10487000191C1A1C0023484EB0471EA827A9009AED
:104880000023B04727A8011C3A1C0023B0473A1C5C
:1048900024321EA8011C0023B04727A8011C2A1C93
:1048A0003E4EB04724239C46AC44634601931EA869
:1048B000011C6246B04727A8011C394A394B98476A
:1048C00027A8334B984700281BD01EA8011C344A48
:1048D000344B98471EA82E4B9847002808D0201C20
:1048E000391C2C4B9847201C211C2F4B98474AE021
:1048F000201C00216C222D4B98470123236063620A
:1049000041E0261C4836301C009927AA0023224F7C
:10491000B847301C311C224A224B984715A827A9BA
:104920000A1C0023B8470CA815A927AA0023B847DA
:1049300015A8011C2A1C0023B84727A815A90A1C82
:104940001B4B984703A81EA90A1C0023B84703A8BD
:10495000011C27AA114DA847201C03A90CAAA8478F
:1049600015A8011C221CA84715A8011C1EAA00237B
:10497000B8470CA8011C019A0023B847201C24301A
:1049800015A90CAAA84731B0F0BDC046113F0100DF
:10499000B94600001D440000593D00007D43000061
:1049A000C88E010055440000DD4600004B3F010069
:1049B000E13C0000F0B593B0041C0D1C0F1C4837FF
:1049C000381C1B4B9847002807D0201C00214C2284
:1049D000184B98470123A36428E009A816493A1CFC
:1049E000164B174FB847684609A90A1C0023154EF5
:1049F000B047201C291C6A460023B0476846694618
:104A000009AA0023B047271C2437291C2431381C4D
:104A10006A460023B047201C211C084A0A4DA847BB
:104A2000381C391C054AA8470023A36413B0F0BD05
:104A3000B94600004B3F0100EC8E0100C88E01001A
:104A400059450000593D000055440000F0B5574657
:104A50004E464546E0B4C6B080460D1C141C0B6A99
:104A6000002B07DA00214C22464B9847012342468F
:104A7000936481E02BA800216C22424B98470123CC
:104A80002B933493281C404B9847002808D040466D
:104A900000214C223B4B98470123424693646BE034
:104AA0000023279328942BA8211C384B98472BA828
:104AB000011C374B984714AE301C2BA9354FB84713
:104AC00029962BA8011C221C334B984701AC201CB3
:104AD0002BA9B8472A942B6A9B0F3DD18E246400E2
:104AE0001F270320E317DA0E1319591189003B40E1
:104AF0009B1A4A59DA40104230D1023CA31CF1D132
:104B000021E0E717FB0E1F197A11920049460F406A
:104B1000FF1A5359FB401F1C03231F402BA8011CE5
:104B2000B0472BA8011CB047BF0027ABFA58002A9A
:104B300002D02BA8011CD047023CE2D540462BA94D
:104B4000144B984718E02BA800216C220D4B984776
:104B500001232B933493F1E78F2464002BA80021C9
:104B60006C22084B984701232B9334931E339946AC
:104B7000074E094B9A46C4E746B01CBC904699467E
:104B8000A246F0BD4B3F0100B94600001D440000A5
:104B9000DD460000B549000031480000F0B5364C54
:104BA000A544061C0D1C141C101C3449344B98479A
:104BB00000285ADB201C3349314B98470223002838
:104BC00054DA271C2437381C2C492D4B98470323D3
:104BD00000284BDB381C2B49294B9847042300281D
:104BE00044DA82A825493A1C264B274FB84779A8B2
:104BF000311C82AA0123254FB84779A8011C214AFC
:104C0000234EB04770A8211C82AA0123B84770A880
:104C1000011C1C4AB0475DA879A91E4A1E4EB04728
:104C20004AA870A92A1CB0471CA84AA91B4B984740
:104C300001A81CA95DAA1A4B984737A801A9194BCE
:104C400098470523499A002A10D18BA837A90D4A05
:104C50000F4B98478BA8211C094B98470623021C31
:104C6000501E82415242134000E00123181C95233C
:104C70009B009D44F0BDC046ACFDFFFFEC8E0100E3
:104C8000A1430000108F010059450000593D00006C
:104C900055440000EC8D01004D4A00001D44000009
:104CA00031480000B5490000F8B5061C0D1C141C65
:104CB000081C002124220D4B9847002C15D0601EA3
:104CC00030180022032793089B00EB180678391C44
:104CD0001140C9008E40311C1E68314319600132F9
:104CE000A24202D00138242AEDD1F8BD4B3F010089
:104CF00008B5034B984743425841C0B208BDC0466F
:104D00009D4B0000F0B5202A00D92022002303602B
:104D100043608360C360036143618361C361036275
:104D2000002A13D0531EC91800260327B3089B007E
:104D3000C3180D783C1C3440E400A5402C1C1D68B1
:104D40002C431C60013601399642EFD1F0BDC046BC
:104D500030B58BB0031C0C1C151C01A8191C20229B
:104D6000064B984701A8291C221C054B984701288F
:104D700001D00D2000E000200BB030BD054D00003B
:104D8000F14C0000F0B5A3B0071C0E1C151C1C1C38
:104D900008A8094B984708A8391C321C074B9847AC
:104DA00008A86946064B98476846291C221C054BF3
:104DB000984723B0F0BDC046C94D0000D54D000056
:104DC0001D4E0000514D000008B5014B984708BD2D
:104DD0008DC7000008B5014B984708BD2DCA0000DB
:104DE00070B59AB0041C0D1C002A0DD06846211C19
:104DF0006822084EB047281C211C074B9847201CEE
:104E000069466822B04703E0081C211C024B984702
:104E10001AB070BD113F01004DCB000008B5031C56
:104E2000081C191C014B984708BDC0464DCB00001B
:104E3000F0B58BB0041C0191151C00214022224FBB
:104E4000B847261C4036301C00214022B847402D70
:104E500017D94036301C1D4B9847301C01992A1C2D
:104E60001B4B984702A8311C1A4B9847201C02A9DB
:104E70002022194DA847201C403002A92022A84713
:104E800010E0201C01992A1C134FB847301C0199CF
:104E90002A1CB84706E01A784A401A700133834248
:104EA000F9D104E0231C201C40303621F3E7251CF7
:104EB0008035281C054B9847281C211C4022044B98
:104EC000984700200BB0F0BD4B3F01008DC700009C
:104ED0002DCA00004DCB0000113F0100F8B5071CA2
:104EE0000D1C041C8034081C211C0F4B98473B1CD4
:104EF0004033261C5C201A7842401A700133B342BA
:104F0000F9D1201C094B9847391C4031201C402204
:104F1000074EB047201C291C2022B047281C211C0A
:104F2000014B98470020F8BD4DCB00008DC7000015
:104F30002DCA0000F0B55F4656464D464446F0B4D3
:104F4000C5B083468946019200934E9B9846032044
:104F5000012A49D943460020002B45D03AE04B4670
:104F60001A780AA85B461968234B98472AA802A911
:104F70002022224B98471EE002CD22782AA8B8476B
:104F80000134B442F8D10AA802A9D04743461F2BE6
:104F900019D9009D281C02A92022194CA0472022C3
:104FA00052429446E0442B1C203300934346002B8E
:104FB000D5D1002018E05B461D1D4B465C1C019BB3
:104FC0004B441E1CD8E7009802A942460C4B984758
:104FD000002009E00A780AA85B461968064B984742
:104FE000064F084B9A46E6E745B03CBC90469946CA
:104FF000A246AB46F0BDC046314E00002DCA0000AF
:10500000113F0100DD4E000038B5051C0C1C104A94
:10501000118853680B4302D1101C0E4B98470E4B5E
:105020001B680020AB4211D3094801210B4B984764
:10503000002C08D02378002B07D001342378002BD4
:10504000FBD1012002E0012000E0012038BDC04674
:10505000D006002035B5000028010020F1B4000082
:10506000322867D88000354B1B589F46344864E08F
:10507000344862E0344860E034485EE034485CE044
:1050800034485AE0344858E0344856E0344854E054
:10509000344852E0344850E034484EE034484CE064
:1050A00034484AE0344848E0344846E0344844E074
:1050B000344842E0344840E034483EE034483CE084
:1050C00034483AE0344838E0344836E0344834E094
:1050D000344832E0344830E034482EE034482CE0A4
:1050E00034482AE0344828E0344826E0344824E0B4
:1050F000344822E0344820E034481EE034481CE0C4
:1051000034481AE0344818E0344816E0344814E0D3
:10511000344812E0344810E034480EE034480CE0E3
:1051200034480AE0344808E0344806E0344804E0F3
:10513000344802E0344800E034487047348F0100BE
:1051400008900100E8A801001490010024900100DB
:10515000B8AB010038900100489001005890010060
:10516000B0A8010068900100249D01007C9001001E
:1051700014A901008C9001009C900100AC900100EA
:105180003CA90100BC900100D0900100E09001001A
:10519000F090010004910100149101002891010098
:1051A000349101004091010050910100649101008F
:1051B000789101008C910100A0910100B49101004F
:1051C000C4910100D4910100F0910100049201000A
:1051D00018920100289201003C92010050920100B7
:1051E00064920100789201008C920100A892010063
:1051F000C4920100E8920100049301002093010091
:105200003C930100589301007C93010088AC01009D
:10521000F0B55F4656464D464446F0B483B08246EC
:10522000914601930D1C101C002180225200414B1D
:105230009847002D71D056460023984600279B467C
:105240003478A309032B35D1012D33DD2502737882
:105250001D43AD04AD0C0C9B9D420DD3012036497E
:10526000364A374B9847031C0020002B5AD035484C
:10527000354B9847002055E0019B5A1913783F2180
:105280008B430ED001202C49982292002C4B98473A
:10529000031C0020002B45D02C482B4B98470020A6
:1052A00040E0B24502D802239C46E0440C9B5D1BC3
:1052B000161C2EE00136013D5B4651468E425B4195
:1052C0009844A5420DDA01201B49214A1C4B9847FE
:1052D000031C0020002B25D01A481B4B98470020A8
:1052E00020E04B461B78381C002B03D04B462E2267
:1052F000DA55781C002C12D00719FF2F11D848441A
:10530000311C221C134B98472D1B3619B24500D86F
:10531000A044002D94D1404604E0002002E0404625
:1053200000E0404603B03CBC90469946A246AB46DE
:10533000F0BDC0464B3F0100109401005B0200002D
:1053400009500000389401003547010064940100C1
:1053500075020000113F0100F0B55F4656464D460C
:105360004446F0B489B0061C0D1C171C0393129A16
:1053700000923A1CA24CA047002801D0072D0DD85E
:105380000120A049A04AA14B98470023002800D142
:10539000E6E19F489F4B98470023E1E1854204D313
:1053A0000823994681444D450ED201209549C622D5
:1053B0009200964B98470023002800D1D0E19648F0
:1053C000944B98470023CBE1331859788022520040
:1053D000B954DA7894460222FF326446BC541A79F2
:1053E000120694465A79120464462243DC79144327
:1053F0009A791202231C134382225200BB502D1AA9
:1054000008235B429846A8444E440C2928D002D871
:10541000012906D07CE1102900D188E0212937D06C
:1054200076E10937FF37381C002110227B4B984763
:105430004346052B00D878E13378002B00D074E187
:105440007378042B00D070E100233B707B70BB703D
:10545000FB70B11C381C0422714B9847062371E184
:10546000291C0A393278120273781A4300239142B8
:1054700000D275E1B01C3A1C0932FF32129B009336
:10548000039B5F4CA047831C002800D04BE14CE1FC
:105490004346012B0CD801205A49624A5B4B98477E
:1054A000002800D141E160484146604B98473CE10B
:1054B00033781B0272781A4390460A235B429A465D
:1054C000AA44924501D3052A0DD801204D49584AD6
:1054D0004E4B9847002800D127E156485146424696
:1054E000524B984721E1B3781B02F2781343842290
:1054F0005200BB5233791B02727913433A1C0932B2
:10550000FF325380B3791B02F1790B439380301C37
:105510000830291C10390632129B0093039B384C2B
:10552000A047002800D100E1031C0833FBE08423DE
:105530005B009C46BC446346069360460021802283
:105540005200364CA04782239B009C46BC446346D5
:1055500004936046002180225200A047C2239B0092
:105560009A46BA4400235246137053709370D37016
:10557000137153719371D3714346012B0CD80120E1
:1055800020492D4A214B9847002800D1CDE02B48D7
:105590004146264B9847C8E033781B0272781A437D
:1055A00005922C1C0A3C94420DD201201549AB22D5
:1055B0009200164B9847002800D1B6E01F48211CE6
:1055C0001A4B9847B1E0059B002B00D1C5E0002C99
:1055D00000D1B9E0F21CB6780B3D2C1C002E00D196
:1055E000A3E0002D00D1A0E0AE4200D99DE0A0468E
:1055F0009B46351C141C5346079303972BE0C0466B
:105600001152000010940100120300000950000024
:105610009094010035470100DC9401004B3F0100EC
:10562000113F0100E602000010950100154601003F
:10563000EF02000040950100A202000084950100E5
:10564000541C1678013B9846002E6ED0002B6CD06F
:10565000351CB34269D3201C3D212A1C444B98477A
:105660008246002843D0771E031BFF1AFFB2201C7E
:1056700040490422404B9847002807D1072F05D8FE
:105680005346591C07983A1C3C4B9847201C3C49F0
:105690000222394B984700280BD184235B00039AE0
:1056A000D35C002B05D15346591C04983A1C334B4C
:1056B0009847201C334902222F4B9847002816D1C7
:1056C000139B002B13D0181C2F4B9847021C8742AA
:1056D0000DD301239C46E24450461399264B98472C
:1056E000002804D1069851463A1C244B9847621969
:1056F000F6435E44B3B29B4643465B1B59460029C2
:105700002BD0002B9CD11FE02048214B98470CE068
:105710004346012B09D933781B02707803430A3DB5
:105720009D4202D30233002B0CD1012019491A4AA1
:105730001A4B98470023002812D01948144B984759
:1057400000230DE04B440BE001201249B6229200E9
:10575000124B98470028E8D0D6E7059B0233E2E7D2
:10576000181C09B03CBC90469946A246AB46F0BD19
:10577000DD3E0100B4950100F33E0100113F010040
:10578000BC950100C095010033490100C49501009A
:1057900015460100109401005D030000095000004F
:1057A000F0950100F0B55F4656464D464446F0B4CC
:1057B000DD4CA5440391141C8768C368DD1BFFAB57
:1057C000503300261E605E609E60DE60D3A800211C
:1057D00080225200D54B9847FFAB60331E605E605D
:1057E0009E60D348D34B98470B2D0DD80120D2494A
:1057F00080229200D14B9847002800D1ADE2D048DA
:10580000291CD04B9847A8E2FFAA60323B781B02C4
:1058100079780B431380BB781B02F9780B435380D4
:1058200039790902787901439180B9790902F879C7
:105830000143D180397A0902787A01431181B97A1A
:105840000902F87A0843061C50811BB21020002B75
:1058500000DBA5E204E0BC48B64B984710209FE26D
:10586000FFAB6033DB8899461020002B00D197E214
:10587000002E00D194E20C2D00D891E20C235B4263
:105880009846A84418339A46BA44FFAB60339B88C5
:10589000002B32DD002304971F1CAB4655460594B0
:1058A0004446B2460FA80021C42292009F4B98475D
:1058B0005B46009300230193281C211C0FAA049B24
:1058C000A24EB047002801D0A04204D9A048994B6D
:1058D0009847102064E2241A2D189E48954B98474B
:1058E0000137FFAB60339B88BB42DBDC049FA046E3
:1058F0005346AA465D46059C1E1C0023079306934B
:1059000005930A9309939B4604974346A846321C85
:1059100056460B945C4692461D1CAEE00FA8002133
:10592000C4229200814B9847434600930023019381
:10593000301C291C0FAA049B844FB847002801D0B3
:10594000854204D284487B4B9847102028E22D1AC8
:10595000361801348148211C7A4B984780235B001C
:105960000FAAD35C0C2B19D1101C7D4913227D4B3F
:105970009847002800D002E27B486E4B984780236E
:105980005B000FAAD35C012209920C2B00D1F6E137
:1059900004E07648674B984701230A9380235B0015
:1059A0000FAAD35C212B68D12D200CAB9C46604400
:1059B0006B4913226B4B984700282DD16C488D23DF
:1059C0005B000CAA94466344191C5E4B9847D3A80D
:1059D000002180225200554B9847D3A88D235B00AD
:1059E0000CAA94466344191C80225200614B9847CC
:1059F00086235B000CAA0C215218D35A05938423EA
:105A00005B000CAA5218D35A07930CAB80225200A9
:105A10005B189B5C212B30D12D200CAB9C46604445
:105A2000554913224F4B9847002826D150488D23C3
:105A30005B000CAA94466344191C424B9847D3A8B8
:105A4000002180225200394B9847D3A88D235B0058
:105A50000CAA94466344191C80225200454B984777
:105A600086235B000CAA0C215218D35A0693842378
:105A70005B000CAA5218D35A07934C4500DA4DE745
:105A8000049F2A1C45465346B2460B9C1E1C90465A
:105A900010200A9B099A134300D181E1069B059AC5
:105AA000134300D17CE100239B469946231C4446C6
:105AB000A846049320E00FA84946C42292001B4B3D
:105AC0009847434600934B4601935046211C0FAA2A
:105AD0003B1C1E4DA847002801D0844204D2274811
